:100000000C944A040C948E040C94A9040C948E0451
:100010000C948E040C948E040C948E040C948E0418
:100020000C948E040C948E040C94281E0C948E0454
:100030000C948E040C948E040C948E040C948E04F8
:100040000C948E040C948E040C948E040C948E04E8
:100050000C948E04001CAAFFFFFF00000000001C8F
:100060002BFFFFFF00000000001C55FFFFFF0000FA
:100070000000001CBFFFFFFF00000000001C00FF8D
:10008000FFFF000000000000000000000000000072
:100090000000000000000000000000000000000060
:1000A000000000000000000000007E0F00D4FFFFF1
:1000B000FFC70000007800000000000000002A2BAD
:1000C0002800000000000000000000000000000008
:1000D0000029000000002C1E342021222434262771
:1000E000252E362D3738271E1F2021222324252692
:1000F0003333362E37381F0405060708090A0B0C60
:100100000D0E0F101112131415161718191A1B1CA7
:100110001D2F3130232D350405060708090A0B0C65
:100120000D0E0F101112131415161718191A1B1C87
:100130001D2F3130354C7C00720068005E00540089
:10014000000000047F3F1F643214643214783C1EA8
:100150001E140A0500010101010101010101020251
:100160000202020202020203030303030303030465
:100170000404040404040505050505060606060630
:10018000070707070708080808090909090A0A0AEA
:100190000B0B0B0C0C0C0D0D0D0E0E0E0F0F0F108C
:1001A0001011111112121313141415151616171716
:1001B000181819191A1A1B1B1C1D1D1E1E1F202082
:1001C000212222232424252626272829292A2B2CCC
:1001D0002D2D2E2F30313232333435363738393AEF
:1001E0003B3C3D3E3F404142434445464748494AE7
:1001F0004C4D4E4F50515354555658595A5B5D5EB5
:100200005F616264656668696B6C6D6F707273754F
:1002100077787A7B7D7E8082838587888A8C8E8FB3
:1002200091939596989A9C9EA0A2A3A5A7A9ABADE1
:10023000AFB1B3B5B7BABCBEC0C2C4C6C9CBCDCFCF
:10024000D1D4D6D8DBDDDFE2E4E7E9EBEEF0F3F57D
:10025000F8FAFDFFFFAA7F55402223252628292AE8
:100260002C2D2F3032333536383A3B3D3E40424319
:100270004547494A4C4E5051535557595A5C5E6058
:1002800062646668696B6D6F71737577797B7D7F6A
:1002900081838587898A8C8E90929496989A9C9E69
:1002A0009FA1A3A5A7A8AAACAEAFB1B3B4B6B8B985
:1002B000BBBCBEBFC1C2C3C5C6C7C9CACBCCCDCEED
:1002C000D0D1D2D2D3D4D5D6D7D7D8D9D9DADADBD0
:1002D000DBDBDCDCDCDCDCDDDDDDDDDCDCDCDCDC5C
:1002E000DBDBDBDADAD9D9D8D7D7D6D5D4D3D2D29B
:1002F000D1D0CECDCCCBCAC9C7C6C5C3C2C1BFBE83
:10030000BCBBB9B8B6B4B3B1AFAEACAAA8A7A5A3ED
:10031000A19F9E9C9A98969492908E8C8A898785AC
:1003200083817F7D7B79777573716F6D6B6968668B
:100330006462605E5C5A5957555351504E4C4A495D
:1003400047454342403E3D3B3A3836353332302F05
:100350002D2C2A292826252322290000003A003B9B
:10036000003C003D003E003F004000410035001EC3
:10037000001F002000210022002300240025002669
:10038000002B0014001A000800150017001C0018AC
:10039000000C001200390004001600070009000AD2
:1003A000000B000D000E000F00E100E1001D001B1E
:1003B00000060019000500110010003600E000E3FF
:1003C00000E20000002C0000002C0000002C0000C7
:1003D0000000000000A900AA00A900AA00450044EE
:1003E0000043004200000056005500540083002ADC
:1003F000002A002E002D0027000000570061006039
:10040000005F000000310030002F00130000005793
:10041000005E005D005C0000002800000034003336
:1004200000000058005B005A00590052000000E133
:10043000003800370000005800630062004F005190
:10044000005000E700E700E60001000000010001A5
:100450000001000100010001000100010001000194
:100460000001000100010001000100010001000184
:100470000001000100010001000100010001000174
:100480000001000100010001000100010001000164
:100490000001000100010001000100010001000154
:1004A0000001000100010001000100010001000144
:1004B0000001000000010000000100000001000038
:1004C0000000000000010001000100010001000126
:1004D0000001000100000001000100010001000115
:1004E0000001000100010001000000010001000105
:1004F00000010000000100010001000100000001F6
:1005000000010001000100000001000000010001E5
:1005100000000001000100010001000100000001D5
:1005200000010001000000010001000100010001C4
:1005300000010001000100010001000000010001B4
:1005400000010001000100010001000100010001A3
:100550000001000100010001000100010001000193
:100560000001000100010001000100010001000183
:100570000001000100010001000100010001000173
:100580000001000100010001000100010001000163
:100590000001000100010001000100010001000153
:1005A0000001000000010000000100000001000047
:1005B0000000000000010001000100010001000135
:1005C0000001000100000001000100010001000124
:1005D0000001000100010001000000010001000114
:1005E0000001000000010001000100010000000105
:1005F00000010001000100000001000000010001F5
:1006000000000001000100010001000100000001E4
:1006100000010001000000010001000100010001D3
:1006200000010001000100010001000000010001C3
:1006300000010001000100010001000100010001B2
:1006400000010001000100010001000100010001A2
:100650000001000100010001000100010001000192
:100660000001000100010001000100010001000182
:100670000001000100010001000100010001000172
:100680000001000100010001000100010001000162
:100690000001000000010000000100000001000056
:1006A0000000000000010001000100010001000144
:1006B0000001000100000001000100010001000133
:1006C0000001000100010001000000010001000123
:1006D0000001000000010001000100010000000114
:1006E0000001000100010000000100000001000104
:1006F00000000001000100010001000100000001F4
:1007000000010001000000010001000100010001E2
:1007100000010001000100010005010902A101859D
:10072000020901A1000509190129081500250195F3
:1007300008750181020501093009311581257F9570
:10074000027508810609381581257F950175088194
:1007500006050C0A38021581257F9501750881066A
:10076000C0C005010980A101850319012AB7001540
:100770000126B700950175108100C0050C0901A183
:1007800001850419012AA002150126A00295017510
:10079000108100C00660FF0961A1010962150026F1
:1007A000FF009520750881020963150026FF00955A
:1007B0002075089102C005010906A101050719E08D
:1007C00029E7150025019508750181029501750835
:1007D00081030507190029FF150026FF00950675FE
:1007E00008810005081901290595057501910295F3
:1007F0000175039103C018034D00450047004100F7
:100800004D0045004E00440055004E0047000000DA
:10081000100353005500470045004E0047005A00A2
:1008200000000403090409025B00030100A0FA09A7
:10083000040000010301010009210101000122401F
:1008400000070581030800010904010002030000FC
:10085000000921010100012222000705840308008C
:100860000107050403080001090402000103000058
:1008700000092101010001227B0007058303080014
:10088000011201100100000008E56007600100018D
:100890000200010011241FBECFE5D8E0DEBFCDBFAE
:1008A00004B603FE24C080914F0390915003A091A1
:1008B0005103B09152038730904BA740B04BB9F42D
:1008C00010924F0310925003109251031092520352
:1008D00014BE84B7877F84BF0FB6F894A89581B5FE
:1008E000886181BD11BC0FBEE0E0F8E3099523E00B
:1008F000ACEFB0E001C01D92AF34B207E1F710E0F9
:10090000A0E6B0E0ECE2FCE402C005900D92AC3F42
:10091000B107D9F70E944C1E0C94E2250C940000FC
:10092000A82FB92F80E090E041E050EA609530E0D8
:1009300009C02D9182279795879510F084279527D8
:10094000305EC8F36F5FA8F30895EADF8D939D933F
:100950000895CF93CFB7CF93DF93C395839BE9F7E8
:10096000839B10C0839B0EC0839B0CC0839B0AC0DB
:10097000839B08C0839B06C0C0912903C395C09385
:1009800029038EC06F93C0912803DD27C35DDC4F20
:100990002F9365E5839B03C02F916F91E1CF0F9358
:1009A0001F934F9320E040E15F9300B30C7003FB73
:1009B00027F93F9350E03BE039C01C7040642F772B
:1009C000012F5F5F1EC0406810B31C702F7752501C
:1009D0001FC0406400B32F770C70D1F15F5F00C07F
:1009E00023C0406210B32F771C7091F15F5F00C08D
:1009F00025C00C701027515012F45D5F000011509B
:100A000027952C3F10B3C8F61C700127015027957D
:100A10002C3FC8F64227499300B30C7010274F7340
:100A2000115027952C3FA8F64695469510B31C709B
:100A300079F00127015027952C3F98F66B5A60F307
:100A4000315000B3B0F600C010E81ABF00271CC038
:100A50003B503195C31BD04010E81ABF0881033CBE
:100A600021F10B3411F1209126031981110F12137A
:100A7000EDCF4A81441F093679F10D3211F0013E64
:100A800029F74F7009F0042F00932C033F915F91D9
:100A90004F911F910F912F916F91CAB7C7FD5DCFF5
:100AA000DF91CF91CFBFCF91189520912C032223B6
:100AB00069F310912A03112309F049C034300AF474
:100AC00048C030932A0320932703109128033BE06A
:100AD000311B309328033DC000912A030130BCF53F
:100AE0000AE54F7049F43091790034FD33C000932A
:100AF0007900C3E0D3E032C0433059F0443091F084
:100B000030910E0334FD26C000930E03CFE0D3E0F6
:100B100025C03091430334FD1DC000934303C4E45A
:100B2000D3E01CC030911A0334FD14C000931A03A3
:100B3000CBE1D3E013C0052710E000C0000002BBEA
:100B40001AC0052710E0221F1DC010E021C04AE591
:100B500002C032ED432FC4E1D0E032E011B31C609B
:100B6000939A02B311BB5CE020E865E320FF052700
:100B700002BB279517951C3FF0F66695B8F7B1F7BD
:100B800020FF052702BB279517951C3FD0F6279518
:100B9000179517FF052700001C3F02BBB0F62991EF
:100BA0003A9519F7037F10912B03110FC651D040CE
:100BB00002BB11F01093260310E81ABF086011B3AE
:100BC000137F402F437F54E05A95F1F702BB11BBCE
:100BD00042BB5CCFFC018381833081F130F48130F2
:100BE000E9F0823019F180E00895813209F445C0BE
:100BF0008232C9F7248135812130310509F452C090
:100C00002230310509F455C0232B69F786EB97E0B4
:100C1000909301038093000380E4089581E898E0B5
:100C2000909301038093000382E1089586E298E0A7
:100C300090930103809300038BE5089582818130B6
:100C400061F0823091F08111CECF82E298E09093F2
:100C500001038093000384E0089580E198E090937D
:100C600001038093000380E1089586EF97E090935D
:100C700001038093000388E108958281813061F04F
:100C8000823069F08111AFCF88E398E0909301033F
:100C90008093000389E0089581E598E0F7CF81E72C
:100CA00098E0F4CF24E937E0309301032093000368
:100CB000089589E197E090930103809300038BE707
:100CC00008958091FB02089588E198E00FB6F894AA
:100CD000A89581BD0FBE91BDA895F894D8E0CEE54A
:100CE00028E3299320E0299314BEFFCF08959C01A7
:100CF0004FB7F8948091440290914502A09146022A
:100D0000B09147024FBF821B930B08952FB7F89401
:100D10008091440290914502A0914602B091470211
:100D20002FBF0895209141023091420228173907C0
:100D300071F09093420280934102E0913F02F09162
:100D40004002309721F00084F185E02D0994089548
:100D500020913D0230913E022817390771F090939F
:100D60003E0280933D02E0913F02F09140023097B5
:100D700021F00680F781E02D09940895E0913F026B
:100D8000F0914002309721F00190F081E02D09941C
:100D900080E00895FA0181110994FB01FDCF0895C7
:100DA00080913802982F9E7F29F481708260809311
:100DB000380208958A34E8F381708864F8CF8F92FE
:100DC0009F92AF92BF92CF92DF92EF92FF920F93DA
:100DD0001F93CF93DF93D82EC62EE901E42FF0E0C6
:100DE000EC5AFE4F611113C04491942FE42FE98314
:100DF00048839A83DF91CF911F910F91FF90EF90DD
:100E0000DF90CF90BF90AF909F908F900895062F66
:100E100010E0E49186E0D89E700111242FEF30E0BD
:100E2000C701B9010E94E4248D2D90E0880F991F1D
:100E3000F5E5F69FA001F79F500D1124841B950B3B
:100E4000982F990F890FA901401B510BE49FD001E6
:100E5000E59FB00D11244B2FC89E60011124CD2CAD
:100E6000DD245901AC18BD08EA9D6001EB9DD00C52
:100E700011249D2D4901881A9108809E5001819E60
:100E8000B00C909EB00C1124AB2CBB242A193B094A
:100E9000E29F8001E39F100D112463307105D1F0B2
:100EA0008CEFE81683E0F80670F461307105B1F05C
:100EB00062307105B9F08FEFE816F10408F097CFB2
:100EC0009B2F412F94CF6430710579F06630710506
:100ED000B9F38DCF4D2D9E2FEB2F89CF4E2FED2DBA
:100EE0009B2F85CF912F4E2FF7CF9E2FE12F7FCFB6
:100EF0000E9486062091D2013091D301232B21F04C
:100F00008093CE019093CF012091D4013091D501EF
:100F1000232B21F08093CC019093CD01E0913F02EF
:100F2000F0914002309749F082E08093D001048034
:100F3000F581E02D80ED91E0099408954091D20172
:100F4000803F59F48091D30187FF0DC01092D301E7
:100F500041110BC01092CA0108C0813F81F48091F9
:100F6000D30118169CF3442381F08091D401909111
:100F7000D501892B09F05AC01092C9010895823F0A
:100F800049F447FFF0CF1092D2018091D301811133
:100F9000ECCFE0CF833F19F41416ACF3E4CF90917B
:100FA000D401893F29F41916F4F61092D401DBCF4D
:100FB0008A3F19F497FFD7CFF8CF9091D5018B3F97
:100FC00029F497FFD0CF1092D501CDCF8C3F19F4E3
:100FD0001916CCF3C8CF9CE0980F953090F4845F3D
:100FE000990B21E030E0B90102C0660F771F8A95A6
:100FF000E2F7CB0180959091D10189238093D101B3
:10100000B2CF8D3F31F48091CB018E7F8093CB01A5
:10101000AACF8E3F21F48091CB018D7FF7CF8F3FF8
:1010200009F0A1CF8091CB018B7FF0CF0895809103
:10103000CB0180FD16C081FD16C082FD16C08091D7
:10104000C9018823A1F0883280F428E0829FC00182
:10105000112468E270E00E94F824862F672B39F093
:10106000089582E0089584E0089588E0089581E07D
:1010700008958091CB0180FD14C081FD14C082FDD4
:1010800016C08091CA01882381F0843180F422E364
:10109000829FC001112464E170E00E94F824862F31
:1010A00008958CE0089589E1089585E0089582E32C
:1010B0000895803F31F40E94390881958093D301CF
:1010C0000895813F19F40E943908F8CF823F31F426
:1010D0000E94390881958093D2010895833F19F4C5
:1010E0000E943908F8CF893F29F40E94170880939D
:1010F000D40108958A3F21F40E9417088195F7CF03
:101100008B3F31F40E94170881958093D501089593
:101110008C3F19F40E941708F8CF9CE0980F953087
:1011200070F4845F990B21E030E001C0220F8A95B2
:10113000EAF78091D101822B8093D10108958D3FF0
:1011400031F48091CB0181608093CB0108958E3F73
:1011500021F48091CB018260F7CF8F3FB9F7809166
:10116000CB018460F1CF80E00895F894E82FE295F8
:10117000EF70F0E041A98F7021E030E0B90102C0CA
:10118000660F771F8A95E2F7CB01962F90959423EF
:1011900091AB92A9892B82AB7894089590917301B9
:1011A00092FF06C0282F28712830F9F4877F8460C9
:1011B00093FF06C0282F28712831F1F4877E8461BF
:1011C0002091740120FF06C0382F38713830D9F4CF
:1011D000877F816021FF06C0282F28712831D1F434
:1011E000877E816194FD877E0895282F24712430A5
:1011F000F9F68B7F8860DCCF282F2471243101F72A
:101200008B7E8861DDCF382F3171313019F78E7FB9
:101210008860E0CF282F2171213121F78E7E8861EF
:10122000E1CFCF93DF93EC01803E910509F460C0DC
:1012300050F58133910509F4A6C090F489329105E7
:1012400009F49AC08A9709F4A5C0C130D10509F400
:1012500062C0CE010497813A910508F055C05BC089
:1012600089339105F1F182389105D9F1C59709F4D7
:101270007CC0C83AD10508F094C0C53AD10528F31E
:10128000A497D06448C0843E910509F453C068F423
:10129000823E9105E1F1833E910509F440C0CE0103
:1012A000805E9109089780F536C0863E910509F465
:1012B0004CC0873E910509F44DC0811522E5920787
:1012C00008F0AAC0811531E5930708F0FAC08F3FF6
:1012D000910511F008F074C0803F910550F2D0657F
:1012E0001AC0809173018370B1F0C0EED0E013C0DA
:1012F0008091730180FD12C19091740190FF0BC029
:10130000C3EED0E084FF07C0D0E0C0E004C080910D
:10131000730182FDF5CFCE01DF91CF9108958091C9
:10132000730182FDFEC09091740190FDDECF84FFB9
:10133000F2CFEACF8091740181FFEDCF80917301EC
:10134000C7EED0E084FDE0CFE6CF8091730183FD4E
:10135000F7CFE1CF8091730183FDE6C090917401D6
:1013600091FFE5CFC4EED0E0D6CF8091730185FF29
:10137000D2CFC9E2D0E0CFCF8091730185FFCBCF30
:10138000C5E3D0E0C8CF8091730186FFC4CFCAE225
:10139000D0E0C1CF8091730186FFBDCFC1E3D0E023
:1013A000BACFCF3BD10508F07ACFC85AD0E0CC0FE6
:1013B000DD1FC258DF4F0990D881C02DD464ABCF58
:1013C000811540E5940760F4C11580E4D80708F062
:1013D00075C0CE019A9581159F4108F49CCF94CF9A
:1013E000F4E096958795FA95E1F783702C2F269572
:1013F0002695237040E2249F90011124382B8C2FD6
:101400008370C1E0D0E002C0CC0FDD1F8A95E2F707
:10141000C22BD32BDC687FCFC11586E5D80730F50A
:10142000C11595E5D90708F060C0C11524E5D207BC
:10143000C0F49C2F969596959E0123703327C11575
:10144000D34508F043C0C1E0D0E002C0CC0FDD1F9F
:101450002A95E2F720E2929FC0011124C82BD92BD4
:10146000D9CFDC2FCC27C46FD06A55CFC1153AE550
:10147000D30788F4C11549E5D40708F041C0CE016F
:1014800098558F3F910511F008F03ECFDC2FCC2707
:10149000C06FD06A40CFCE0190568115904208F0BF
:1014A00033CF8D2F8F710E94CE0890E0982F882720
:1014B00088279F719C012C2BE90120C0DF70D06A26
:1014C0002ACFD82FCC27C16FD06A25CFC1E0D0E07A
:1014D00002C0CC0FDD1F2A95E2F730E2939FC001D6
:1014E0001124C82BD92BDA6816CF8C2F0E94CE0876
:1014F000C82FD0E0DC2FCC27CC27DF71D0620BCFF8
:101500008C2F8F700E94CE0834E0D695C7953A95FF
:10151000E1F7CF70DC2FC82FD069FDCEC9E3D0E052
:10152000FACEC2EED0E0F7CEC6EED0E0F4CE809197
:101530006E01811110926E01089580918E0190913B
:101540006D01892B90916C01892B8093FE00909105
:101550006E01992391F0892B8093FE0020E080E0BA
:1015600091E0FC013081019631112F5F31E086302E
:101570009307B9F721110E94970AE0913F02F09179
:101580004002309731F00280F381E02D8EEF90E041
:101590000994089580916A0190913901981301C0CE
:1015A00008958F5F8770FACFE82F2AE0929FE00DB1
:1015B00011249E2F9770E695E695E69583E0E89FC7
:1015C000F0011124EA5FFE4F50E040E080E02191FD
:1015D00030E0092E02C0369527950A94E2F7217073
:1015E0003327042E01C0220F0A94EAF7822B4F5FA3
:1015F0005F4F4330510559F70895E82F2AE0929F35
:10160000E00D11248E2F877041E001C0440F8A95B0
:10161000EAF7E695E695E69583E0E89FF001112468
:10162000EA5FFE4F30E020E070E05191DF0111975A
:10163000CB01022E02C0969587950A94E2F781703D
:1016400081958527842385278C932F5F3F4F2330F7
:10165000310559F7089590E080E00E94A80690E0D7
:1016600080E00E94920610926D0110926C010E941F
:101670009D0A86E0E0EDF1E0DF011D928A95E9F731
:101680001092CA011092C9011092CB010C947807F4
:1016900080936F010C942B0B882341F080959091DF
:1016A0006D01892380936D010C949D0A0895882310
:1016B00039F090916D01892B80936D010C949D0AF6
:1016C0000895882341F0809590918E01892380931D
:1016D0008E010C949D0A0895882339F090918E0113
:1016E000892B80938E010C949D0A08958823F1F133
:1016F0009CEF980F913A78F4E0E0F1E026E031E0D9
:101700009191891303C0DF0111971C922E173F0797
:10171000B9F70C949D0A90E2980F983088F487707E
:1017200021E030E0A90102C0440F551F8A95E2F77D
:10173000CA01809590918E01892380938E01E9CF13
:101740009BE5980F933020F490E080E00C94A8067D
:1017500098E5980F973120F490E080E00C94920681
:10176000803F20F00E949E070C94780708950F9305
:101770001F93CF93C82F882309F471C08CEF8C0F6F
:10178000813AA8F500E011E0F8018191C81701F154
:1017900021E0E630F207C9F7EFEF80E0D8019D9134
:1017A0008D01C91781F0EF3F19F4911101C0E82FA5
:1017B0008F5F863099F7EF3F31F00E2E000CFF0B54
:1017C000E250FF4FC283CF911F910F910C949D0A5D
:1017D000E0E0F1E08191C81303C0DF0111971C9292
:1017E00031E0E630F307B1F70E949D0AD5CF80E2E1
:1017F0008C0F883068F4C77021E030E001C0220F00
:10180000CA95EAF780918E01822B80938E01DBCFFF
:101810008BE58C0F833048F42C2F2452330BC901F5
:10182000CF911F910F910C94A806E8E5EC0FE731DA
:1018300060F4F0E0EE0FFF1FE258FF4F80819181CE
:10184000CF911F910F910C949206C03F40F08C2FC6
:101850000E945908CF911F910F910C947807CF9156
:101860001F910F9108950F931F93462F572FBC017F
:10187000DC01CA01F4E0B695A79597958795FA958E
:10188000D1F70097A105B10501F1AC01BD0184E0DC
:101890008A019B01E2E03695279517950795EA9511
:1018A000D1F7011511052105310519F08E5FB90138
:1018B000A8017695679557954795452B462B472B5D
:1018C00009F08F5F1F910F91089580E0E1CF9C0197
:1018D0009A9581159F4150F5D901AA27B170F90158
:1018E000EE27F270B90166277470A9014427587079
:1018F00034FF0EC080E1AB2B09F480E0EF2B09F040
:101900008062672B09F08064452B89F08068089518
:1019100081E0AB2B09F480E0EF2B09F08260672BAC
:1019200009F08460452B19F08860089580E00895DF
:10193000CF93DF9380912A03835087FD14C0909149
:101940002803CCE0D0E0C91BD109C35DDC4F9091E6
:101950002703903108F070C0883009F458C0109205
:10196000F00210922A038091790084FF43C0809195
:1019700078008F3F09F43EC0C82F893008F0C8E0D6
:10198000982F9C1B909378009091030328E892274E
:1019900090930303882301F1809100039091010348
:1019A0002091FF0226FF0AC1FC012C2F44E053E0E6
:1019B0003491DA013C934F5F5F4F31962150C1F76C
:1019C0009C012F5F3F4F8FEF8C0F820F932F911D44
:1019D00090930103809300036C2F84E093E00E94B6
:1019E000A50484E08C0FC83019F09FEF9093780025
:1019F0008093790084E190B39C7031F48150D9F7E1
:101A000010922B0310922603DF91CF9108958091BD
:101A1000F002893108F0A3CFE82FF0E0E053FD4F4A
:101A20009E01285F3F4F999191932C173D07D9F75D
:101A3000885F8093F00295CF9D3209F0A3C0883073
:101A400009F08FCF83EC809303038AE580937900BC
:101A50001092FF028881807609F447C0803229F510
:101A60008981813099F48C819D81892BF1F482EFF9
:101A700092E0909301038093000388E09F8191118D
:101A800031C09E81981770F5892F2CC0823041F4A7
:101A900081EF92E0909301038093000381E0EECF09
:101AA0008A3029F48B818093F10280E0E7CF89307E
:101AB000E1F78A819B818115924069F48C819D8137
:101AC000892B49F481E08093FE028E819F8190935F
:101AD000FD028093FC02888187FF52C08E8190E8CE
:101AE0009093FF02809378003CCF2A8110920C03E0
:101AF000998191110AC010920D032CE033E082E02D
:101B00003093010320930003B9CF953029F420933B
:101B10002B032CE033E0F4CF9630C1F49B8191305D
:101B200049F4CE010E94EA0590E49093FF028F3FB2
:101B300091F2A4CF9230A9F3933099F3913289F3C3
:101B4000923279F390E49093FF0298CF983089F025
:101B5000993019F42093FA02DCCF9A3071F09B305F
:101B6000C1F69BE490930F039093440390931B035F
:101B7000D0CF2AEF32E081E0C3CF2CE033E0FBCFBF
:101B80008FEFADCF8091FF0287FFEBCE8091FC02FB
:101B90009091FD02892B71F08091FE02813051F409
:101BA00088818093FB021092FD021092FC02109239
:101BB0007800D7CE8EE180937900D3CEDC012C2F34
:101BC00044E053E0FA013D9130834F5F5F4F215075
:101BD000C9F7F6CE1F93CF93DF93782F162FEA0124
:101BE000888184FF1EC0898128E882278983AE010D
:101BF0004E5F5F4FFA01272F392F710FD9012F5FE9
:101C00003F4F8C918193872F821B1816BCF3612F55
:101C1000CA010E94A5041C5F1883DF91CF911F9118
:101C200008958AE58883E3CF2091430324FF05C00C
:101C300043E453E066E00C94EA0D08959B01909113
:101C4000CF02981307C04091CD025091CE024617A3
:101C50005707B9F08093CF023093CE022093CD0284
:101C60008093CA023093CC022093CB02809143032D
:101C700084FF07C043E453E063E08AEC92E00C94F5
:101C8000EA0D0895BC0184E00C941E0EBC0183E0B3
:101C90000C941E0ECF93DF93CAE0D0E080910E0328
:101CA00084FF1CC08091C8029091C902981799F0D6
:101CB00028E0829FC00111244EE053E068E0885B79
:101CC0009D4F0E94EA0D8091C80290E001968F70AE
:101CD00099278093C802DF91CF9108950E94980CB4
:101CE0008FE99FE00197F1F700C000002197B1F65E
:101CF000F2CFCF93DF93D82FC92FA091C902B0E0C4
:101D0000CD0101968F7099272091C802281781F084
:101D100093E0AA0FBB1F9A95E1F7A85BBD4F98E02F
:101D2000ED2FFC2F01900D929A95E1F78093C90257
:101D30000E94980C0E944A0E88E0ED2FFC2FA2EF23
:101D4000B2E001900D928A95E1F7DF91CF9108956D
:101D50001F93CF93DF93182FEB010E94B70B8FE9EE
:101D60009FE00197F1F700C000002197C1F7812F94
:101D7000DF91CF911F910C94760BEF92FF921F93FE
:101D8000CF93DF93EC017C0180EEE81AF108CE01DD
:101D90000E94670C182F98E0E916F10410F02097C4
:101DA000E1F40E946C0B8C2F0E94B70B8FE39CE92F
:101DB0000197F1F700C000008C2F0E94760B812F55
:101DC00098E0E916F10410F0CD2B51F4DF91CF919A
:101DD0001F91FF90EF900C94610B0E94570BE3CF83
:101DE000DF91CF911F91FF90EF900C944C0BCF930C
:101DF000DF93C7EFD2E060E0CE010E946B25219611
:101E0000C11584E0D807B9F7DF91CF9108956F929B
:101E10007F928F929F92AF92BF92CF92DF92EF927A
:101E2000FF920F931F93CF93DF93D12CC12C3BE2F2
:101E3000A32EBB24B394E501C05FD10936011BC0BA
:101E4000F70185909490692DC8010E946B25682D3B
:101E5000C80101960E946B2522E0E20EF11C0E5F84
:101E60001F4FC017D10761F73AE0630E711C6496EB
:101E7000CA15DB0559F0C301880F991F9C01275A29
:101E80003C4F79018E0104511109DACFCE01805106
:101E90009F4F5C0198E7C90ED11CCB30D34059F657
:101EA000DF91CF911F910F91FF90EF90DF90CF9036
:101EB000BF90AF909F908F907F906F900895CF9339
:101EC000C82F6FEF811162E283E290E00E946B25E0
:101ED0006FEFC11168E084E290E00E946B256FEF24
:101EE000C11162E085E290E0CF910C946B2580E017
:101EF0000E945F0F60E086E290E00E946B250E94E6
:101F0000070F0E94F70E81E00C945F0FCF93C091F2
:101F10007401C2FB992790F9981781F080FBC2F9F0
:101F2000C09374016091730184E090E00E946B257E
:101F30006C2F82E290E0CF910C946B25CF910895A5
:101F40000F931F93CF93DF93C42FD0E0CC0FDD1FEF
:101F500024E1629FC00DD11D112430EF839FC00D7D
:101F6000D11D1124CE0187960E945725082F10E01D
:101F7000102F0027CE0188960E9457259801282B04
:101F8000C901DF91CF911F910F910895462F672FBF
:101F9000833030F47C3020F44A3010F40C94A00FDD
:101FA00090E080E00895DF92EF92FF920F931F93ED
:101FB000CF93DF937C010091020380916F01082B86
:101FC000C7E0D0E010E0DC2EC8010C2E02C09595D1
:101FD00087950A94E2F780FD0CC02197A0F7D12CD9
:101FE0008D2DDF91CF911F910F91FF90EF90DF909A
:101FF0000895B7018C2F0E94C60F0E941109019706
:1020000061F3EECFCF93DF93D82FC92F0E94D30F68
:102010006D2F7C2F0E94C60FDF91CF910C94110978
:10202000FC01808191810E940210282F892F8F70DE
:10203000392F32953F70903C80F43A30B0F4343010
:1020400020F4323090F480E008953630E1F781E0FA
:10205000283E88F0213FB9F70EC03C3011F03F30E8
:1020600091F7869586958695089581E0203F39F011
:1020700018F4283E40F70895243F29F7FCCF08952F
:1020800083E290E00E945725823289F484E290E056
:102090000E945725883059F485E290E00E94572528
:1020A00091E0823009F090E0892F8170089580E0FE
:1020B000FCCF5F926F927F928F929F92AF92BF926E
:1020C000CF92DF92EF92FF920F931F93CF93DF9304
:1020D00000D000D00F92CDB7DEB78091380280FDDE
:1020E0000AC0E4EEF1E0118210821282339622E0FF
:1020F000E833F207C1F78090DF019090E00181148E
:10210000910409F455C0D12CC12C66246394712C20
:1021100053E0552E8091DE0193010C2C01C0220F5B
:102120000A94EAF7822309F43BC0F601EE0FFF1F81
:10213000E80DF91DE590F490E114F104C9F145E0D2
:1021400050E0B701CE0101960E94342509810F3F6E
:1021500039F18A81800F9927991F8D31910514F0EB
:102160008CE190E05C01AA0CBB1C8A0D9B1D9C01BC
:102170002C513E4F5901059D800111240C511E4FD9
:102180000A151B0520F035E0E30EF11CD8CF9801AD
:102190004D816C818B810E94DF060D5F1F4FF0CF58
:1021A0005FEFC51AD50A88E0C816D10409F0B2CF8E
:1021B000B89A38B33E7F28B321604FB7F89484EEC5
:1021C00091E0FC010196508168E028BB000000C04E
:1021D00057FF38BB550F000000C000C000C038BB1F
:1021E00000C06A9591F752E08833950751F74FBFC9
:1021F0008FE594E00197F1F700C000000F900F9079
:102200000F900F900F90DF91CF911F910F91FF9042
:10221000EF90DF90CF90BF90AF909F908F907F9086
:102220006F905F900895EF92FF920F931F93CF935B
:10223000DF93EC0104EE11E0F12CE12C60913A0205
:10224000809139029C812EE0E216F104FCF499237E
:10225000F9F0980140913B020E94DF068FEFE81AE7
:10226000F80A0D5F1F4F2CE1E216F10439F70E94C6
:1022700059108C8190E00196817099278C83DF91B1
:10228000CF911F910F91FF90EF900895992309F33B
:10229000980140E0E1CFCF92DF92EF92FF920F934F
:1022A0001F93CF93DF93CDB7DEB72E970FB6F89479
:1022B000DEBF0FBECDBF8D879E87AD85BE851496D0
:1022C0001C91212F30E0D9010E94D3259B01AC0144
:1022D0000E949E2569837A838B839C83E0E2F0E0F1
:1022E000E11BF109A5E5B0E09B01AC010E949E2530
:1022F00069877A878B879C879F01DF010E94192558
:102300009B01AC010E94A9256D837E838F839887F2
:102310009B01AC0189819A81AB81BC81280F391F57
:102320004A1F5B1F69857A858B859C850E94B12534
:10233000F22E822F90E0A9E2A21708F442C0B3E087
:102340002B9F9001112435952795122F109594EE0F
:10235000C92E91E0D92E00E085E5E82EEF188E2DEC
:1023600001FD8F2D9601412F60913A020E94DF06F8
:102370000F5FF3E0CF0ED11C0C3189F70E9459108A
:10238000AD85BE8514969C9181E0992319F0903219
:1023900019F48FEF8093770080917700890FED8596
:1023A000FE8584832E960FB6F894DEBF0FBECDBF98
:1023B000DF91CF911F910F91FF90EF90DF90CF9021
:1023C000089525E530E0F901E81BF90B9F01220F84
:1023D000331F2E0F3F1F37FFB6CF2F5F3F4FB3CFB7
:1023E0000F931F93CF93DF93C4EED1E0FE011182D0
:1023F00010821282339682E0E833F807C1F710E0CA
:1024000000E08091E201082E000C990B08171907D3
:102410008CF180917600082E000C990B80179107A3
:102420004CF19E0140913B0260913A028091390249
:102430000E94DF060F5F1F4F23960C31110509F72D
:102440000E945910809175009091E201980F90932D
:10245000E20120917600280F20937600121614F4E2
:102460009B311CF0819580937500DF91CF911F9176
:102470000F910895198218821A82DCCFCF92DF92D1
:10248000EF92FF920F931F93CF93DF93FC01828112
:10249000DD24DA9480FD02C0DD24D39404EE11E043
:1024A000D0E0C0E0F80111821082128294E0E92E9F
:1024B000F12CC12C8091E1018C0D8D31E4F16CE1A6
:1024C0000E94D624892F082E000C990B8C179D078B
:1024D00091F480913B028E9DA0018F9D500D11249F
:1024E0005595479555954795980160913A02809189
:1024F00039020E94DF06CD0CF1E0EF1AF108D1F6A7
:1025000021960D5F1F4FCC31D10561F60E94591005
:102510008091E10191E0D91214C0811110C08BE1CA
:102520008093E101DF91CF911F910F91FF90EF9088
:10253000DF90CF90089587FFC6CF845EC4CF8150CF
:10254000EFCF90E00196BE010E94F824E9CFEF9210
:10255000FF921F93CF93DF93EC0184EEE82E81E08E
:10256000F82E10E08C81970140913B0260913A0275
:10257000810F0E94DF06175F83E0E80EF11C1C3F0D
:1025800089F70E9459109A818C8190FF08C08F5F53
:102590008C83DF91CF911F91FF90EF900895815030
:1025A000F7CF9091380290FF0CC0E4EEF1E0818308
:1025B00060834283339692E0E833F907C1F70C94C5
:1025C000591008950F931F93CF93DF9300D00F926C
:1025D000CDB7DEB78C018091E30181110AC09E0165
:1025E0002F5F3F4F4FEF6FEF0E94DF068A8180938E
:1025F000E301F8016481613049F06230F1F08091CB
:10260000E30140E0662331F040E019C06091E3014E
:1026100040E080E00E94D112F801848190E00196B0
:1026200063E070E00E94F82484830F900F900F9075
:10263000DF91CF911F910F9108954091E30180E0C8
:1026400060E0E8CFCF93DF9300D00F92CDB7DEB735
:102650009091380290FF0AC09E012F5F3F4F0E9469
:10266000DF064B8169818A810E94D1120F900F9001
:102670000F90DF91CF910895CF93DF93EC01E8E3C2
:10268000F2E0438162818C810E9422138C818F5FF2
:102690008C83DF91CF910895CF93DF93EC01EC8190
:1026A000F0E0E75AFD4F4491E8E3F2E06281818176
:1026B0000E9422138C818F5F8C83DF91CF910895CC
:1026C0000F931F93CF93DF938B01D82FC92F0E94B5
:1026D000D006A8016D2F7C2F88E090E0DF91CF918C
:1026E0001F910F910C947C255F926F927F928F9235
:1026F0009F92AF92BF92CF92DF92EF92FF920F9391
:102700001F93CF93DF9300D000D000D00F92CDB7AE
:10271000DEB7182F762E042F622E9091380290FF8C
:102720002BC0E92FE695AE2FB0E0AA52BF4F8C9197
:102730008093DC019E7F9230A9F59E012F5F3F4F71
:10274000812F0E94DF064B8169818A810E94D1120C
:102750001093390270923A0200933B02662061F0B6
:102760008091380290913902A0913A02B0913B02D7
:10277000BC01CD010E94601327960FB6F894DEBF0E
:102780000FBECDBFDF91CF911F910F91FF90EF90C2
:10279000DF90CF90BF90AF909F908F907F906F9081
:1027A0005F900895823019F400913B02D1CF8630BA
:1027B00019F410913902CCCF8930D9F3893141F61F
:1027C000E9518E2F8170582EE695F0E0EC5AFD4FBE
:1027D000A590B490BB2484EEE82E81E0F82ED12C95
:1027E000C12C9CE1892E912CC601B4010E94E424E5
:1027F000812F511013C0860F9701402F672D0E9423
:10280000DF06CA0CDB1C93E0E90EF11CA8E3EA1614
:10281000A2E0FA0649F70E9459109ACF861BECCF26
:10282000E8E3F2E0438128E0421B08F440E021E0C5
:10283000628181810C947413E8E3F2E0438128E023
:10284000420F08F44FEF21E0628181810C947413F0
:10285000E8E3F2E0628128E0621B08F460E021E036
:10286000438181810C947413E8E3F2E0628128E0F3
:10287000620F08F46FEF21E0438181810C9474139F
:10288000E8E3F2E0818121E04381628188500C9489
:102890007413E8E3F2E0818121E043816281885F83
:1028A0000C947413CF93DF9300D000D0CDB7DEB774
:1028B00080913C02882319F0815080933C028091E2
:1028C000380290913902A0913A02B0913B0289837B
:1028D0009A83AB83BC83BC01CD010F900F900F9006
:1028E0000F90DF91CF910C946013CF93DF9300D0C2
:1028F00000D0CDB7DEB780913C02833018F48F5FF3
:1029000080933C028091380290913902A0913A0262
:10291000B0913B0289839A83AB83BC83BC01CD0118
:102920000F900F900F900F90DF91CF910C94601348
:10293000CF93DF9300D000D0CDB7DEB790913802AF
:1029400090FF49C09170811135C092609093380218
:10295000662381F08091380290913902A0913A0269
:10296000B0913B0289839A83AB83BC83BC01CD01C8
:102970000E94601360913802669570E04BE050E071
:102980008AE690E00E943D25892BD9F01092DD0166
:1029900081E08093D90120E040913B0260913A02AE
:1029A000809139020F900F900F900F90DF91CF918F
:1029B0000C947413853210F09864C8CF880F982B4C
:1029C000C5CF81E08093DD010E9486069093D701F8
:1029D0008093D601DDCF0F900F900F900F90DF9175
:1029E000CF91089521E030E0A90102C0440F551FA6
:1029F0008A95E2F7CA012091DE01662399F0822BC5
:102A00008093DE018091DD01811106C08091380242
:102A100060E086950E9498148091380280FD05C080
:102A20000C94591080958223EBCF0895CF93C82F33
:102A3000C17081FB662760F980E00E94F2146C2F60
:102A400084E0CF910C94F21480914302882319F012
:102A500080E00C9416150895CF93C82F81FB66274C
:102A600060F9811101C060E081E00E94F214C2FBB4
:102A7000662760F9C11101C060E082E00E94F21493
:102A8000C3FB662760F9C11101C060E083E00E94CA
:102A9000F2148C2FCF9108950E942C15809302037D
:102AA0000C942B0B80910203982F9670963019F49A
:102AB00088600C944C15877FFCCF21E030E001C08A
:102AC000220F8A95EAF720958091020382230C94C5
:102AD0004C1590916B018095892380936B01282F71
:102AE000277039F4282F082E000C330B9217130689
:102AF00021F49091740192FF07C085958595859585
:102B00000E945D1510926B01089521E030E001C034
:102B1000220F8A95EAF780910203822B0C944C15C0
:102B20009091380296958FEF890F913009F484E2E5
:102B300061E00C9498148091380286958F5F8532FD
:102B400008F081E061E00C9498149091380290FFB5
:102B500007C09695981720F0961710F40C949B15C3
:102B600061E00C949814CF93DF9300D000D0CDB7E0
:102B7000DEB7E8E3F2E083E0808311828FEF8283A7
:102B80008383148280819181A281B38189839A8316
:102B9000AB83BC83BC01CD010F900F900F900F90C1
:102BA000DF91CF910C94601369EE7EEF90E080E0AE
:102BB0000E94882560E082E090E00E946B2560E042
:102BC00083E090E00E946B2510926F0160E084E04A
:102BD00090E00E946B2560E082E290E00E946B250D
:102BE00060E085E090E00E946B2560E086E090E088
:102BF0000E946B256FEF87E090E00E946B2540E01C
:102C000050E0BA0188E090E00E947C2560E08DE011
:102C100090E00E946B2540E050E0BA0188E190E02E
:102C20000E947C2560E087E190E00E946B2540E0F7
:102C300050E0BA018CE190E00E947C2570E060E0F9
:102C400080E290E00E94882540E050E0BA0188E1EF
:102C500090E00E947C2580E00E945F0F0E94770F29
:102C600040E050E0BA018FE090E00E947C2540E017
:102C700050E0BA0183E190E00C947C258F929F9202
:102C8000AF92BF92CF92DF92EF92FF920F931F937A
:102C9000CF93DF93CDB7DEB768970FB6F894DEBF5A
:102CA0000FBECDBF8E010F5F1F4F88E1F80111925B
:102CB0008A95E9F78CEAE82E80E0F82E6801AA24CC
:102CC000A394B12CF70181917F018F3F09F44BC090
:102CD000F894E82FE295EF70F0E021A98F70A5013C
:102CE00002C0440F551F8A95E2F7CA01922F982B14
:102CF00091AB92A98095892382AB789400C0E8EBD0
:102D0000F0E030E020E0912C812C81918F3F09F49C
:102D10006AC0A82FA295AF70B0E0D0964C9150E059
:102D20008F7002C0559547958A95E2F740FD5BC0CC
:102D3000C501022E02C0880F991F0A94E2F7882A63
:102D4000992A2F5F3F4F2A303105F9F6F701319765
:102D500080818F3F11F00E94B50850EA5A95F1F733
:102D6000F60191828082F2E0CF0ED11C48EBE4168E
:102D700040E0F40609F0A6CF48E150E0B80185E74D
:102D800091E00E944A259C01FF24F394892B09F4C9
:102D9000F12C232B59F188E1F801A5E7B1E001906E
:102DA0000D928A95E1F781E0809372010E94860678
:102DB00090937101809370018091700190917101E5
:102DC0000E9477060597B0F0E5E7F1E0AFEAB1E0E1
:102DD000819191918D939D9351E0ED38F507C1F765
:102DE0001092720107C090E080E0A9CF809172013B
:102DF0008111E2CF8F2D68960FB6F894DEBF0FBE1B
:102E0000CDBFDF91CF911F910F91FF90EF90DF9099
:102E1000CF90BF90AF909F908F90089590E080E00A
:102E20000E946525893E9E4F11F40C94401080E06D
:102E30000895E0E0F1E086E0DF011D928A95E9F770
:102E40000C942B0B3F924F925F926F927F928F92D6
:102E50009F92AF92BF92CF92DF92EF92FF920F9329
:102E60001F93CF93DF93CDB7DEB729970FB6F894B2
:102E7000DEBF0FBECDBF7C01DC0113968D919C910E
:102E80001497892B39F08C9111969C9189238F3F4F
:102E900009F07DC429960FB6F894DEBF0FBECDBFF2
:102EA000DF91CF911F910F91FF90EF90DF90CF9026
:102EB000BF90AF909F908F907F906F905F904F905A
:102EC0003F9008950E94D30F182F682F89819A810F
:102ED0000E94FD0A69817A81812F0E94C60F8C01B0
:102EE000F7018281882309F447C4C80182519F45B4
:102EF000409708F01FC48FEF93E00E9457250251BE
:102F000047EF842E42E0942E882391F180916B014B
:102F1000877009F4BFCFD70112968C91882309F4EA
:102F2000B9CF82E029960FB6F894DEBF0FBECDBFB1
:102F3000DF91CF911F910F91FF90EF90DF90CF9095
:102F4000BF90AF909F908F907F906F905F904F90C9
:102F50003F900C9469158114F4E09F06B9F2C40106
:102F60000E945725811101C001502FEF821A920A49
:102F70000111F1CF80917A0090917B00A0917C00AB
:102F8000B0917D0089839A83AB83BC8344244394AE
:102F90003AE0332E84010F5F1F4FC4010E94572572
:102FA00089831A82882309F4B1CF9FEF980F933059
:102FB00040F58A83498232E0830E911CC8010E9449
:102FC00057258B83882309F4A1CF8E010F5F1F4FF4
:102FD000D8012C912223F1F2213009F04CC0119636
:102FE0009C91119712968C91913069F40E5F1F4F4E
:102FF0006AE070E0893311F460E570E00E94A80E89
:1030000008C04801E2CF923039F40E5F1F4F0E9492
:10301000B70B0F5F1F4FDCCF933029F40E5F1F4FAC
:103020000E94760BF6CF943019F00F5F1F4FF1CF4F
:103030000E5F1F4F30E020E0B8016F5F7F4FF80157
:1030400041818053990B8A30910550F0215031090C
:1030500000F38FE99FE00197F1F700C00000F6CF81
:10306000329EF001339EF00D11249C012E0F3F1F64
:10307000842F8B01E1CFE22FF0E0EA54FF4F549010
:10308000822F86958695869590E0FC01EA55FF4F44
:1030900064902770712C022E02C0759467940A9474
:1030A000E2F7A1E06A227724FC01EA56FF4FA490E0
:1030B000B12C022E02C0B594A7940A94E2F7B1E0B5
:1030C000AB22BB24FC01EA57FF4FC490D12C02C0B5
:1030D000D594C7942A95E2F7E1E0CE22DD2461146D
:1030E000710419F081EE0E94B70BA114B10419F01C
:1030F00086EE0E94B70BF9E36AE070E05F1202C04F
:1031000060E570E0852D0E94A80EAB2819F086EED0
:103110000E94760B672819F081EE0E94760BCD286D
:1031200009F477CF6AE070E08CE268CF81E00E941A
:1031300085150E945215EACE81E00E945D15F9CFF7
:1031400082E0F5CF0D35100709F4E0CE0A35EDE544
:103150001E0709F4F4C008F0CDC001152CE51207D4
:1031600009F4DAC00E3D1C4509F4E6C0F70182817E
:10317000C080D180882309F4E6C0C6010E94D30F25
:10318000182F682FC6010E94FD0AB601812F0E94E8
:10319000C60F0E9411098C01882ED70112969C90AF
:1031A000129715967C9072942FE0722280916B0199
:1031B0008770A1F0C92C992091F0812F807F8034F5
:1031C00021F080E2800F883048F082E00E9469158B
:1031D00080916B018770CC24C3948111C12C812F05
:1031E00082958F70A82EB12C8C3008F0E6C0F501C6
:1031F000EC51FA4D0C940C258091380280FF21C0CF
:103200008E7F809338028091380290913902A0918C
:103210003A02B0913B028E839F83A887B987BC0195
:10322000CD010E9460131092DD019FEFA0E7B2E094
:103230009150A040B040E1F700C000000E9459103A
:1032400065CE81608093380261E086950E94981473
:103250005DCE40E955E16BE975E10E94CA0656CEA4
:103260004BE955E160E975E1F8CF40E454E169E4E8
:1032700074E1F3CF49E454E160E474E1EECF48E255
:1032800054E164E374E1E9CF44E354E168E274E1BA
:10329000E4CF40E154E16CE174E1DFCF4CE154E173
:1032A00060E174E1DACF42E554E165E774E1D5CF3E
:1032B00045E754E162E574E1D0CF61E081E0C6CF3B
:1032C00065E082E00E94A51521CE68E086E0FACF95
:1032D0006EE089E0F7CF64E18FE0F4CF67E185E14C
:1032E000F1CF61E088E1B2CF62E289E1EBCF61E04A
:1032F00083E2ACCF0B358DE5180719F10C351D4570
:1033000009F034CF8091740182FB882780F991E025
:1033100089270E94860F2ACF10928E010E941917CA
:10332000AFEFB4E3ECE0A150B040E040E1F700C003
:1033300000000E946406EACD0E94D415E7CD81E02A
:10334000E8CF80E0E6CFC6010E94D40A182F1DCF37
:10335000B12FBF70DB2E107F19F0D29490EFD922DD
:10336000802F9920C9F0DD2069F090E2900F98300D
:1033700010F001110BC080918E01D82AD0928E01DD
:103380000E949D0A802F0E94B70B17C080916D018B
:10339000D82AD0926D01F4CF0E94760BDD2069F01F
:1033A000D094005E083010F0811041C080918E01F1
:1033B000D822D0928E010E949D0A98E0A91AB108E5
:1033C000A4E0AA16B10420F40E94BE060E941615BD
:1033D000CC2009F45FCD80916B0180FD5BCDF701BE
:1033E00012828595859585950E948515C7010E9455
:1033F000221780916B0185958595859529960FB645
:10340000F894DEBF0FBECDBFDF91CF911F910F911A
:10341000FF90EF90DF90CF90BF90AF909F908F90F4
:103420007F906F905F904F903F900C945D158091CE
:103430006D01D822D0926D01BECFE12FEF70DE2E4C
:10344000107F103219F0D29480EFD822882089F0B2
:10345000F1E08F1699F19920F1F17720A9F1D701C8
:1034600015968C91159780FF8DCF8F7015968C9344
:103470002BC09920B1F090916E01892F8D29711088
:1034800003C00E946C0B99CF21E07212FACF2091F9
:10349000740122FD92CF981709F48FCF80936E01AB
:1034A0008CCF711006C00E94970A8D2D0E94610B6F
:1034B00084CF31E0731609F480CFF5CF992031F035
:1034C00085E0871508F479CF8D2DDBCF94E0971533
:1034D00008F473CFEACF772041F3093309F022C112
:1034E000BFEFE7EEF3E0B150E040F040E1F700C09D
:1034F0000000802F0E94760B60CF812F86958695E5
:10350000837061F0813009F058CFC8019370911039
:1035100002C090E080E00E9492064FCFC8019370F5
:10352000911002C090E080E00E94A80646CF802F54
:10353000992029F00E9459080E9478073ECF0E94E6
:103540009E07FACF812F837091F5911036CF402FCF
:10355000429546954770440F440F802F8F70042E7C
:1035600001C0880F0A94EAF7202F207104FF07C0DA
:103570002FE030E001C0220F4A95EAF7209516951A
:1035800016951370123071F0133051F030916F01B5
:10359000113029F0822B83230E94480B0ECF832BFE
:1035A000822BFACF282B80916F018227F5CF869549
:1035B000992011F0812F8170882309F4FECE402FCD
:1035C000429546954770440F440F802F8F70042E0C
:1035D00001C0880F0A94EAF7202F207104FF07C06A
:1035E0002FE030E001C0220F4A95EAF720951695AA
:1035F00016951370123071F0133051F030910203B0
:10360000113029F0822B83230E944C15D6CE832BB8
:10361000822BFACF282B809102038227F5CF1F70CF
:10362000992029F0812F0E948515802F2ACF802F85
:103630000E94610B812F0E945D15BFCE802F92EFFB
:10364000891609F448C0981570F0A0EF8A1629F180
:10365000B1EF8B16C1F1992009F458C0711092CEC8
:10366000812F8F7135C0E3EF8E16D1F1F4EF8F12F9
:10367000F2CF992009F43FC01F71812F0E94851558
:103680008091740182FD07C0A8E01A9FC001112437
:10369000836080936B01812F1BC0992079F024E017
:1036A000271508F48ACE1F7181E090E001C0880FD1
:1036B0001A95EAF7909102038927A6CF35E03715CE
:1036C00008F47BCEF0CF812F8F71992009F4B3CF0E
:1036D0000E94851572CE812F8F719920C9F3ABCFCF
:1036E00080E0992009F490CF1F7181E001C0880F1C
:1036F0001A95EAF789CF81E00E946915B1E0B71504
:1037000008F05BCE82E00E94691557CE772079F0F1
:10371000893341F4EFEFF7EE23E0E150F040204031
:10372000E1F7E5CE8FE39CE90197F1F7E0CE812F39
:103730008F7181CF0031FFE51F0709F4F7CC01310C
:103740002FE5120709F4FCCC80918E018272063DB0
:103750002CE5120708F0F6CC023C3CE5130708F410
:10376000FCCCF801E35CFC45E331F10508F044CD05
:10377000E051FA4D0C940C2500313FE5130709F494
:10378000DBCC01311F4509F0F1CC82E0D6CC85E0DD
:10379000F701DE01119601900D928A95E1F7D701AC
:1037A00012962C9189819A8121118CCB0E94D40A86
:1037B000182F90CB1F93CF93DF9380913801807F98
:1037C000A9F480913501882389F080916A01D09114
:1037D00039016091330170913401A0913601B091AB
:1037E0003701C62FC72316E0D81304C0DF91CF914D
:1037F0001F91089590E0109711F0CF3F19F40196B2
:103800008770F2CF189F9001199F300D1124F90194
:10381000E65CFE4F41814713F2CF40814613EFCF64
:1038200042814111ECCF438154814A1B5B0B483CE0
:10383000510528F7809138018F708061809338019D
:10384000F901E15CFE4F80818F708061808383E3AA
:1038500091E00E942217DF91CF911F910C94CA0A28
:10386000AF92BF92CF92DF92EF92FF920F931F938E
:10387000CF93DF93CDB7DEB72B970FB6F894DEBFAB
:103880000FBECDBF8C0185E0F801DE0117960190D7
:103890000D928A95E1F7F801E28083E3A82E81E09A
:1038A000B82E60913601709137016115710509F4E8
:1038B0001AC19091330140913401842F89238F3FA5
:1038C00009F411C120813181C380D480F090350189
:1038D000F601E61BF70BFF2009F4D0C080913801F8
:1038E000582F507FE83CF10508F0ABC0511177C06C
:1038F000FE2C431321C092131FC0E1101DC08F7016
:10390000806180933801C5010E942217809138019F
:10391000F80185838F2D2B960FB6F894DEBF0FBE6E
:10392000CDBFDF91CF911F910F91FF90EF90DF906E
:10393000CF90BF90AF900895CD2829F0822F832398
:103940008F3F09F0EBC080E0F82FF170DF2EE0919F
:103950006A014091390156E080FD1CC0EE20D1F291
:1039600080913801816080933801F12CD3CF8E2F64
:1039700090E05E9FF0011124E65CFE4F61813613FA
:1039800006C06081261303C06281E612E7CFFC0106
:103990003196E770E413EBCF2F8338878F819885BA
:1039A0000E940210292F22952F70903260F0225F22
:1039B0002F70223078F49F7051F0F8019581907F3C
:1039C00031F4D12C0AC09F7011F08823D1F3805EAE
:1039D0008830B8F3C8010E942217FD2C9BCF4313F7
:1039E00006C0921304C0F801EE2009F461C0C801BA
:1039F0000E941010882309F1EE20F9F0809138011F
:103A0000803270F020913301309134013A83298360
:103A10001B82DD82CC828E83CE0101960E9422170A
:103A200086E0F801A3E3B1E001900D928A95E1F7F9
:103A30000E94DA1BFF24F3946DCFC8010E94221765
:103A4000F9CF51110AC083E391E00E94221786E06A
:103A5000F50111928A95E9F788CF4313C8CF9213E5
:103A6000C6CFE110C4CFF8018583C8010E94221798
:103A700086E0F50111928A95E9F74CCFE83CF10513
:103A8000B8F7FE2CEE20C9F243131FC092131DC0DD
:103A90008091380180FD10C0982F907F69F0F80167
:103AA0008583903F31F0982F907F905F8F70892BA6
:103AB0008583C8010E94221786E0F801A3E3B1E0E4
:103AC00001900D928A95E1F725CFC8010E94101050
:103AD0008111A6CF80913801816080933801C8019F
:103AE0000E94221717CFEE2009F4A7CFC8010E9429
:103AF0001010F82E882309F4A0CF86E0F801A3E384
:103B0000B1E001900D928A95E1F780913301909197
:103B100034010E9402100E94DA1BFCCE81E08E2547
:103B200013CF1F93CF93DF93CDB7DEB767970FB651
:103B3000F894DEBF0FBECDBF4B8B5C8B6D8B7E8B45
:103B40008F8B611110926D011A8A2C898E899F8941
:103B50003B893D872E876F87998B888B86E0FE0196
:103B60003D96DE01179601900D928A95E1F7CE0100
:103B700007960E94301C882389F016E080916A0124
:103B800090913901891351C067960FB6F894DEBF42
:103B90000FBECDBFDF91CF911F91089586E0FE014A
:103BA0003796DE01119601900D928A95E1F74A85CC
:103BB0005B854115510509F37F816885862F872331
:103BC0008F3FD9F22091390130E0C9010196877009
:103BD0009927E0916A01E817190681F410928E0185
:103BE0000E9419171092390110926A0186E0E3E3EE
:103BF000F1E0DF011D928A95E9F7BFCF79836A83EF
:103C00005D834C8396E0929FD001939FB00D112469
:103C1000A65CBE4FFE01319601900D929A95E1F798
:103C2000809339010E94CA0AA8CF819FC001112444
:103C3000865C9E4F0E94301C882309F4A5CF80919A
:103C40006A0190E001968770992780936A0196CF68
:103C500078941F921FB61F9211248F939F93AF9356
:103C6000BF938091440290914502A0914602B09189
:103C700047020196A11DB11D809344029093450215
:103C8000A0934602B0934702BF91AF919F918F914D
:103C90001F901FBE1F901895CDB7DEB763970FB664
:103CA000F894DEBF0FBECDBF0E9486069093C80178
:103CB0008093C70184B7806884BF84B7806884BF5D
:103CC00083EB98E09093FD008093FC0085B78860BB
:103CD00085BF8BB780688BBF8BE480930F03809385
:103CE000440380931B038AE580930E038093430370
:103CF00080931A038B9A80E0815009F087C38B98D8
:103D000078948BE083BF8AEF8CBF82E089BF0E94EA
:103D10004010811102C00E94770F0CEA10E0A8EB5E
:103D2000EA2EA0E0FA2EF80181918F018F3F11F069
:103D30000E94B508E016F106B1F708EB10E0F2ECCE
:103D4000EF2EF0E0FF2ED8018D918D018F3F11F005
:103D50000E94B508E016F106B1F7E5E7F1E08DE85D
:103D600091E0AFEAB1E0119211921D921D928E176F
:103D70009F07C9F70E940E17811102C00E94D41537
:103D800082E090E00E9457258093960184E090E0C5
:103D90000E945725182F82E290E00E945725982F05
:103DA000812F90937401809373010E943E16EFE37C
:103DB000FCE93197F1F700C000000E943E168091A7
:103DC000AF0180FF08C06FEF7FEF90E080E00E94BE
:103DD00088250E94640683E090E00E9457250E9497
:103DE000480B809102030E942C1580918D01811156
:103DF00033C00E940E17811104C00E94D4150E9486
:103E0000B31588E090E00E945F25609338027093BC
:103E1000390280933A0290933B026E7F71F40E94C4
:103E2000B31588E090E00E945F256093380270939C
:103E3000390280933A0290933B020E94D00610927E
:103E4000DD018091380280FF04C060E086950E9409
:103E5000981481E080938D0166ED70E0E3E98E2E89
:103E6000E1E09E2E22ED30E0E4EDF0E041E050E0B4
:103E70001191812F82958F7090E0DC01D196FC909A
:103E8000D1971F70E12E6A0101C0CC0C1A95EAF798
:103E90000C2D00950F21D1960C93D197D2961C91A1
:103EA000D2971C29D2961C93D901FD909D010F2D0C
:103EB00002950F7010E0D801D196BC90BF2DBF7055
:103EC000FB2E6A0101C0CC0CBA95EAF7DC2CD09429
:103ED000DB20D801D196DC92D197D296DC90D29794
:103EE000DC28D296DC92DC01D0968C9190E002C066
:103EF00095958795EA94E2F78170D801D0960C9158
:103F000010E002C015950795FA94E2F790E000FDE5
:103F100092E0892BD4018D934D016E177F0709F034
:103F2000A7CF86E391E09093E0018093DF0180E6E4
:103F300090E09093400280933F02BFEFE0E7F2E011
:103F4000B150E040F040E1F700C0000044E0842EB2
:103F5000912C52E4452E51E0552E80912903109169
:103F60004302882309F45AC2109229030E9486064C
:103F70009093C8018093C701112371F010924302FE
:103F800010928E010E9419170E94BE060E941615FB
:103F900080914302811144C20E94980C8091FA02E0
:103FA000882309F416C280910E0384FF12C20E9476
:103FB0003E16882359F08FB7F894409144025091EF
:103FC000450260914602709147028FBFE7E9F1E038
:103FD000AFEAB1E010E000E0D02E8D919D914191CB
:103FE00051914817590709F440C24827592720E042
:103FF000EE24E394F12CBA016E217F21672B09F4A2
:104000002EC22983DA829C012E213F2191E0232BAD
:1040100009F490E09B830E9486068160782F9D833F
:104020008C8349815A816B818D810E94911D000F83
:10403000111FF801E956FE4F80819181E826F9268B
:10404000F182E0828091DD018823D1F18091DC0151
:10405000E0913802E695E81BE093D801823009F040
:104060001BC2F0E0E05BFE4FE4910E2F10E05CE439
:10407000E52E53E1F52E8091D901882361F010924D
:10408000D9010E9486069093D7018093D6011092A1
:10409000DB011092DA010E948606E091D601F091D0
:1040A000D7018E1B9F0B8F3F9F4750F4E00FF11FEE
:1040B000F093D701E093D60186ED91E0F7010995E1
:1040C00001E911E05FE8E52E51E0F52E62ED662E84
:1040D00060E0762E74EDA72E70E0B72EE3E9CE2EC9
:1040E000E1E0DE2E312C212CD601ED916D01EE0F99
:1040F000EE0FD5012D915D01A22FA295AF70B0E01A
:10410000D0968C9190E02F7002C0959587952A9556
:10411000E2F781709927D3014D913D01A42FA2951B
:10412000AF70B0E0D0962C9130E04F7002C0359562
:1041300027954A95E2F7A9014170552720FF02C053
:1041400042E050E0842BE82BD6011197EC931D87B9
:104150000C87EF70F0E0EE53FF4F8081F801908103
:10416000890F808320E08430DCF0D7018C918F5F51
:104170008C9380910203282F30E050E040E0288BA0
:10418000398B4A8B5B8BCA01B9013110E1C10E94A6
:10419000330C44E066E00E94A00F0E94BD0E21E0B7
:1041A000D8018C918D3FDCF4F701808181508083B0
:1041B00080910203282F30E050E040E0288B398BBB
:1041C0004A8B5B8BCA01B9013110C6C10E94330C06
:1041D00045E066E00E94A00F0E94BD0E21E00F5F47
:1041E0001F4FF8013197AC85BD858C91082E000CCE
:1041F000990BB4010E94F8248083222ABFEFEB1AA6
:10420000FB0AE1E03E12A1C1222059F08FB7F894D9
:1042100040914402509145026091460270914702DC
:104220008FBF86E0E0EDF1E0DE01119601900D9286
:104230008A95E1F71091D2010091D301F090D40159
:10424000E090D5011092D2011092D3011092D401C6
:104250001092D501812F802B09F448C08091CE01A6
:104260009091CF010E9477069C018091CA0188231A
:1042700009F497C323333105C8F18F3F19F08F5FDD
:104280008093CA01112359F00E9439089FEF11163B
:104290000CF491E0899F802D11248093D20100239A
:1042A00059F00E9439089FEF10160CF491E0899F95
:1042B000802D11248093D3013091D2013323B1F0AA
:1042C0002091D301222391F045EB3403C001112446
:1042D000992309F445C19093D20155EB2503900130
:1042E0001124332309F440C13093D3018F2D8E293B
:1042F00009F448C08091CC019091CD010E947706CD
:104300009C018091C901882309F446C325363105F3
:10431000C8F18F3F19F08F5F8093C901FF2059F0DA
:104320000E9417089FEF1F140CF491E0899F802DC5
:1043300011248093D401EE2059F00E9417081E1416
:1043400014F033243A94839D302C11243092D501FB
:104350003091D4013323B1F02091D501222391F083
:1043600045EB3403C0011124992309F401C1909352
:10437000D40155EB250390011124332309F4FCC02B
:104380003093D5018091D2019091D301892B9091E6
:10439000D401892B9091D501892B11F00E947807C7
:1043A0001B830C83FD82EE8286E0FE013196A0ED38
:1043B000B1E001900D928A95E1F70E94BE069091BE
:1043C0009501891731F00E94BE06809395010E94E5
:1043D00016150E944A0E0E94980C8091FA028823BA
:1043E00009F4BBCD8091430384FFB7CD8091F002E7
:1043F000803209F0B2CDE091D002E150E33108F013
:1044000019C1F0E0ED5FF94D0C940C25A895AFE9CA
:10441000BFE01197F1F700C000006ECC112381F0CE
:104420000E9424150E943E16EFEAF1E081919191DD
:10443000892B09F08AC221E0E73CF207B9F78DCD5C
:104440008091C7019091C8010E947706069708F4F1
:10445000A3CD81E0809343020E94241599CD2F5F64
:10446000EE0CFF1C2A3009F0C6CD0F5F1F4F0C3039
:10447000110509F0B1CD8FEF8F83888719860E94CF
:1044800086068160782F9B878A874F81588569854A
:104490008B850E94911DD6CD863059F4F0E0E35B08
:1044A000FE4FE4910E2F10E04CE3E42E43E1F42E96
:1044B000E2CD893061F4E695F0E0E65BFE4FE491F1
:1044C0000E2F10E037EAE32E32E1F32ED4CD8F30F9
:1044D00061F4E695F0E0E95BFE4FE4910E2F10E009
:1044E0002EE3E22E22E1F22EC6CD853159F4F0E022
:1044F000EC5BFE4FE4910E2F10E090EFE92E91E17E
:10450000F92EB9CD08E210E0ABE4EA2EA1E1FA2ED3
:10451000883109F4B0CD833241F4F2010591149150
:1045200082EEE82E82E1F82EA6CD04EF11E0B3E191
:10453000EB2EB1E1FB2E843209F49DCD00ED17E0A6
:10454000FFECEF2EF6E0FF2E96CD33243394CCCD46
:104550000E94330C42E01ECE0E94330C43E039CE61
:1045600081E08093D201B9CE81E08093D301BECEA9
:1045700081E08093D401FDCE81E08093D50102CF0C
:104580001092D10289E0F8C08091D102823009F402
:10459000F6C1833019F1813009F04CC08FB7F8941F
:1045A00020914402309145024091460250914702C9
:1045B0002C873D874E875F878FBF6C857D858E8575
:1045C0009F850E9412256093D2027093D30280933C
:1045D000D4029093D50200ED12E096C1A0EDB2E0B6
:1045E000EFEAF1E080819181329612969C931297C6
:1045F00013968C931397129631E0E73CF30791F7EB
:10460000EACF8091D1028230A9F48091D2029091B8
:10461000D302A091D402B091D5028C879D87AE873A
:10462000BF87BC01CD010E94122586E290E00E9466
:104630006B25D1CF8FEF8093D002CDCF4091D302A5
:104640006091D2028091D1020E94A00F9827892701
:1046500098279093D5028093D402BDCFE090D402E6
:10466000F090D502FE24EF24FE248091D102009127
:10467000D20294E1099F80011124A0EF8A9F000DCE
:10468000111D11248091D30290E0880F991F080F0B
:10469000191F6F2DC80187960E946B256E2DC801CA
:1046A0008896C5CF0E94070F96CF8091D10282389D
:1046B00009F43FC008F5803851F1813809F08BCFFB
:1046C00060E08091D2020E9498149091D202809171
:1046D0003802911126C08E7F809338021092DD013E
:1046E000BFEFE0E7F2E0B150E040F040E1F700C09A
:1046F00000000E9459106FCF833809F06CCF20E082
:1047000040913B026091D3028091D20207C020E029
:104710004091D20260913A02809139020E94741352
:104720005ACF81608093380260E086950E94981489
:1047300052CF8091D20280933C024DCF8091D10222
:104740008238F9F058F48038A9F0813809F043CF65
:104750008091380280FF13C086950EC0833809F01F
:104760003ACF809139028093D20280913A028093AD
:10477000D30231CF80913B028093D2022CCF80E0D4
:10478000FBCF80913C02F8CF209138023091390262
:1047900040913A0250913B022C873D874E875F87BC
:1047A000CA01B9010E94601316CF80E18093D10243
:1047B00012CF81E08093D102E5CE0091D102109119
:1047C000D20210270127102730EDC32E32E0D32E5E
:1047D000E090D302F12CA70140535D4F7A01C8014C
:1047E00089509D4FEC14FD0409F4F5CE093051E0D9
:1047F000150758F40E945725D60114968C930F5F25
:104800001F4FFFEFCF1ADF0AEACFF6011482F7CF6E
:104810000091D1021091D20210270127102720ED1C
:10482000C22E22E0D22EE090D302E00EF12EF11C37
:10483000C80189509D4FE016F10609F4CCCE09302D
:1048400021E0120728F4D60114966C910E946B2582
:10485000BFEFCB1ADB0A0F5F1F4FEACF0E94F70EA4
:10486000BACE83E0A3CF0091D1021091D2021027DB
:104870000127102790EDE92E92E0F92EC090D30287
:10488000D12CF601E053FD4F6F01C8018796CE147D
:10489000DF0409F4A0CE003DF2E01F0758F40E94A7
:1048A0005725D70114968C930F5F1F4FFFEFEF1A18
:1048B000FF0AEBCFF7011482F7CF0091D1021091DC
:1048C000D20210270127102780EDC82E82E0D82EB3
:1048D000E090D302E00EF12EF11CC8018796E0169D
:1048E000F10609F478CE003D22E0120728F4D60143
:1048F00014966C910E946B25BFEFCB1ADB0A0F5FF9
:104900001F4FEBCF0E94980C80911A0384FFFACFBF
:104910004AE153E068E0C8010E94EA0D085F1F4FBA
:10492000E2E0003F1E0781F780911A0384FF0AC06E
:104930004AE153E060E090E080E00E94EA0D1092CE
:10494000F0020BCB0E94980CEFCFF89421B3939A0E
:10495000822F8C6081BB92B33CE0932792BBFFE730
:1049600048E351E0F15040405040E1F700C0000002
:1049700082B3832782BB21BB93987894EECA86E2E8
:1049800090E00E9457251092D2021092D30210920A
:10499000D4028093D5021FCE2D32314008F0BBCC1B
:1049A000F1CC2D32314008F06ACCA0CC87FB082E28
:1049B000062687FD819567FD61950E9428250EF4E6
:1049C000919507FC81950895AA1BBB1B51E107C077
:1049D000AA1FBB1FA617B70710F0A61BB70B881F8F
:1049E000991F5A95A9F780959095BC01CD0108951E
:1049F00097FB072E16F4009407D077FD09D00E948C
:104A0000E42407FC05D03EF4909581959F4F0895CE
:104A1000709561957F4F0895EE0FFF1F0590F491FB
:104A2000E02D099469279627692778278727782713
:104A300008950E94D325332312F48A1B9B0B0C94F8
:104A400023250E94D325B7FF0895821B930B089559
:104A5000991B79E004C0991F961708F0961B881FD0
:104A60007A95C9F780950895FB01DC0102C0059095
:104A70000D9241505040D8F70895FC0141505040EC
:104A800030F001900616D1F73197CF0108958827AD
:104A900099270895FB01DC0104C08D9101908019D4
:104AA00021F441505040C8F7881B990B0895E199B3
:104AB000FECF9FBB8EBBE09A99278DB30895A6E1E8
:104AC000B0E044E050E00C949025A8E1B0E042E072
:104AD00050E00C949025262FE199FECF9FBB8EBB12
:104AE000E09A01970DB2021631F02DBB0FB6F89483
:104AF000E29AE19A0FBE08950396272F0E946C2533
:104B00000E946B25252F0E946C25242F0C946C2568
:104B10000196272F0E946C250C946B25DC01CB019C
:104B2000FC01E199FECF06C0FFBBEEBBE09A3196D7
:104B30000DB20D9241505040B8F708950E94D32510
:104B4000A59F900DB49F900DA49F800D911D1124E1
:104B50000895B7FF0C949E250E949E25821B930BFF
:104B60000895A1E21A2EAA1BBB1BFD010DC0AA1FAE
:104B7000BB1FEE1FFF1FA217B307E407F50720F0C6
:104B8000A21BB30BE40BF50B661F771F881F991F41
:104B90001A9469F760957095809590959B01AC018A
:104BA000BD01CF010895A29FB001B39FC001A39F93
:104BB000700D811D1124911DB29F700D811D112456
:104BC000911D0895F894FFCFA819A8191D1A1D1A50
:104BD0007D1A971ADD19DD19A21A0F1B1E1B1E1B49
:104BE0002919301935193A193F19441949194E191B
:104BF000531958195D196019651968196B196E19DF
:104C0000711974197719C022C42201231E232E237F
:104C1000522355239E23C4231A231A23D523D92391
:0C4C2000DD2308242E24312433245D24DD
:104C2C006106790E140E460E420E01191A1B1C1D3C
:104C3C001E1F202122010201FF5A00000000E20089
:104C4C00E900EA00B500B600B700CD008301CC0046
:104C5C008A019201940121022302240225022602D8
:104C6C0027022A02B300B4006F00700001006162D9
:104C7C006364959493929190073031323334353686
:104C8C00379700FF0100010000FFFF000001000149
:104C9C00FF0006650566000102020202060606090F
:104CAC0009090909090F0F0F0F0F0F151515181901
:0C4CBC00191919191919191919232400C4
:00000001FF
