:100000000C94A9050C94C6050C94E1050C94C60546
:100010000C94C6050C94C6050C94C6050C94C60534
:100020000C94C6050C94C6050C94E0290C94C605E6
:100030000C94C6050C94C6050C94C6050C94C60514
:100040000C94C6050C94C6050C94C6050C94C60504
:100050000C94C605090455FFFFFF000000000D04C5
:10006000BFFFFFFF000000001103AAFFFFFF000019
:100070000000000000000000000000000000000080
:100080000000000000000000000000000000000070
:100090000000000000007E0F00D4FFFFFFC700003B
:1000A000007800000000000000002A2B280000005B
:1000B0000000000000000000000000000029000017
:1000C00000002C1E3420212224342627252E362DF4
:1000D0003738271E1F202122232425263333362E8E
:1000E00037381F0405060708090A0B0C0D0E0F1000
:1000F0001112131415161718191A1B1C1D2F313045
:10010000232D350405060708090A0B0C0D0E0F10E8
:100110001112131415161718191A1B1C1D2F313024
:10012000354C68005E00540000000004643214780E
:100130003C1E1E140A05FD377A585A000004E6D604
:10014000B4460200210116000000742FE5A3E00868
:100150008802845D003D8889C65436C3174FE4E2A7
:100160009A2402AD907BC9324A739881B451416F91
:10017000380001EB2F8136FCF6B88ECEF76AF49E7C
:1001800043CCCFFDB7233E55A3AE8E795B0F411E06
:1001900051A5F4DF4A672E741B427046B0FDF60786
:1001A000851F454247144D89D36497CF87F230E0CD
:1001B0001F9D1890A2EEEA34086E77E751EA9D453C
:1001C0006A73B5FFD7F0F18F251934E1EA2353990B
:1001D000B4B2F7E8471CE7C731A283E4FEFE39FA60
:1001E00074AE7332AE332E2BD5B77FD5C2ED3CDA69
:1001F00029948524108C4CBFD37F11AAA199600645
:100200003FA4136D56015909661491EF6D9E7B4210
:100210000C568442DD0FABDBC87931A2C954CAC386
:100220005C81EB215B56D38229511303A7EB258216
:1002300067D54A8D37AD266592B6491CDEC6AB340C
:100240001618D0CCDE3B4491271D85861A75A56013
:10025000B983632CA852CAA51352D319525F6936C9
:10026000B4377EFA5727D83C339A483EBD0B916C81
:10027000A6BF1D072BC0DFE56579FD37F7B810F87D
:10028000897E62EB66607793553274DE02BF37EF8A
:100290000264DB9A1DAFC084A845F0F8674A1F1CB2
:1002A000BB16B9D0896E44D8E56369CEA4B3DE42EB
:1002B00097F86889DCA36202191D730972F0F0587F
:1002C000A4AE2E53FFC235B61C7CD041C99D4FDE73
:1002D000425C91F509BEEADDDCFE9BD8641378D35D
:1002E000E263E4382059AF68FF06504280B4E1363B
:1002F000E8C67E7FBAC79E69E068198E7C292763AD
:1003000044F5C9E41D39BCEEEE0DF484D0E88DAAA5
:10031000024ACD6AEE443C4838E5B5B434F25E2F6B
:10032000DB0916ED7CBB2797D84D283177ECEFA37E
:100330003E4CF4974FA034993109091775BE5C4EB5
:10034000E41B3B9C9932A51D9E8D86E7A466A907F8
:10035000E55B62D6A4D98B1C7E44B7E99EB80687BC
:100360001C1D685DA875FBD8C0DBF352D3924B40CF
:10037000B55C254B4B95DD3B608FF1B94113000A0D
:10038000A1B1528A7F33D0AF7B70A651F9E5624E9E
:1003900067D80CCEAAB3311776DE8817E416D89C3E
:1003A000D95F1E25652C64FA60E511A1ADD0B4D1EA
:1003B000D0FF195A5CA578FA9DC07055F4845AFB99
:1003C000F5D43CC1399BECBE744D920638B3391D4F
:1003D000B7833EAAD02021C7B20053C1D70BCBB1FF
:1003E00087AA0001A00589110000B57A1C9FB1C43D
:1003F00067FB020000000004595A000101010101DD
:1004000001010101020202020202020202030303CD
:10041000030303030304040404040404050505059D
:10042000050606060606070707070708080808095D
:100430000909090A0A0A0B0B0B0C0C0C0D0D0D0E09
:100440000E0E0F0F0F10101111111212131314149E
:10045000151516161717181819191A1A1B1B1C1D13
:100460001D1E1E1F2020212222232424252626276C
:100470002829292A2B2C2D2D2E2F3031323233349E
:1004800035363738393A3B3C3D3E3F4041424344A4
:1004900045464748494A4C4D4E4F50515354555686
:1004A00058595A5B5D5E5F616264656668696B6C32
:1004B0006D6F7072737577787A7B7D7E80828385AD
:1004C00087888A8C8E8F91939596989A9C9EA0A2ED
:1004D000A3A5A7A9ABADAFB1B3B5B7BABCBEC0C2F7
:1004E000C4C6C9CBCDCFD1D4D6D8DBDDDFE2E4E7BB
:1004F000E9EBEEF0F3F5F8FAFDFF22232526282993
:100500002A2C2D2F3032333536383A3B3D3E40428F
:10051000434547494A4C4E5051535557595A5C5ED2
:100520006062646668696B6D6F71737577797B7DE6
:100530007F81838587898A8C8E90929496989A9CE5
:100540009E9FA1A3A5A7A8AAACAEAFB1B3B4B6B8FD
:10055000B9BBBCBEBFC1C2C3C5C6C7C9CACBCCCD5F
:10056000CED0D1D2D2D3D4D5D6D7D7D8D9D9DADA3A
:10057000DBDBDBDCDCDCDCDCDDDDDDDDDCDCDCDCBA
:10058000DCDBDBDBDADAD9D9D8D7D7D6D5D4D3D2EE
:10059000D2D1D0CECDCCCBCAC9C7C6C5C3C2C1BFCC
:1005A000BEBCBBB9B8B6B4B3B1AFAEACAAA8A7A530
:1005B000A3A19F9E9C9A98969492908E8C8A8987EC
:1005C0008583817F7D7B79777573716F6D6B6968CA
:1005D000666462605E5C5A5957555351504E4C4A9E
:1005E0004947454342403E3D3B3A38363533323049
:1005F0002F2D2C2A292826252322290000003A0005
:100600003B003C003D003E003F0040004100350003
:100610001E001F00200021002200230024002500CE
:1006200026002B0014001A000800150017001C00FB
:1006300018000C0012003900040016000700090021
:100640000A000B000D000E000F00E100E1001D008C
:100650001B00060019000500110010003600E00024
:10066000E300E20000002C0000002C0000002C0041
:10067000000000000000A900AA00A900AA0045008F
:10068000440043004200000056005500540083001F
:100690002A002A002E002D002700000057006100CC
:1006A00060005F000000310030002F0013000000E8
:1006B00057005E005D005C00000028000000340070
:1006C0003300000058005B005A005900520000003F
:1006D000E1003800370000005800630062004F005E
:1006E00051005000E700E700E600010000000100B3
:1006F00001000100010001000100010001000100F2
:1007000001000100010001000100010001000100E1
:1007100001000100010001000100010001000100D1
:1007200001000100010001000100010001000100C1
:1007300001000100010001000100010001000100B1
:1007400001000100010001000100010001000100A1
:100750000100010000000100000001000000010094
:100760000000000000000100010001000100010084
:100770000100010001000000010001000100010072
:100780000100010001000100010000000100010062
:100790000100010000000100010001000100000053
:1007A0000100010001000100000001000000010043
:1007B0000100000001000100010001000100000033
:1007C0000100010001000000010001000100010022
:1007D0000100010001000100010001000000010012
:1007E0000100010001000100010001000100010001
:1007F00001000100010001000100010001000100F1
:1008000001000100010001000100010001000100E0
:1008100001000100010001000100010001000100D0
:1008200001000100010001000100010001000100C0
:1008300001000100010001000100010001000100B0
:1008400001000100000001000000010000000100A3
:100850000000000000000100010001000100010093
:100860000100010001000000010001000100010081
:100870000100010001000100010000000100010071
:100880000100010000000100010001000100000062
:100890000100010001000100000001000000010052
:1008A0000100000001000100010001000100000042
:1008B0000100010001000000010001000100010031
:1008C0000100010001000100010001000000010021
:1008D0000100010001000100010001000100010010
:1008E0000100010001000100010001000100010000
:1008F00001000100010001000100010001000100F0
:1009000001000100010001000100010001000100DF
:1009100001000100010001000100010001000100CF
:1009200001000100010001000100010001000100BF
:1009300001000100000001000000010000000100B2
:1009400000000000000001000100010001000100A2
:100950000100010001000000010001000100010090
:100960000100010001000100010000000100010080
:100970000100010000000100010001000100000071
:100980000100010001000100000001000000010061
:100990000100000001000100010001000100000051
:1009A0000100010001000000010001000100010040
:1009B0000100010001000100010005010902A1017F
:1009C00085020901A1000509190129081500250161
:1009D0009508750181020501093009311581257FCE
:1009E00095027508810609381581257F95017508DE
:1009F0008106050C0A38021581257F95017508814D
:100A000006C0C005010980A101850319012AB700AC
:100A1000150126B700950175108100C0050C09016C
:100A2000A101850419012AA002150126A002950141
:100A300075108100C00660FF0961A10109621500FF
:100A400026FF009520750881020963150026FF0026
:100A5000952075089102C005010906A10105071935
:100A6000E029E715002501950875018102950175BA
:100A70000881030507190029FF150026FF009506C8
:100A80007508810005081901290595057501910270
:100A9000950175039103C01C037600690061006C29
:100AA000003A006600360034006300320062003312
:100AB000006300000018034D004500470041004D51
:100AC0000045004E00440055004E00470000001055
:100AD0000353005500470045004E0047005A0000F0
:100AE000000403090409025B00030100A0FA0904E1
:100AF0000000010301010009210101000122400061
:100B00000705810308000109040100020300000039
:100B100009210101000122220007058403080001C8
:100B20000705040308000109040200010300000096
:100B3000092101010001227B000705830308000150
:100B40001201100100000008E560076001000102C9
:100B5000030111241FBECFE5D8E0DEBFCDBF24E0E6
:100B6000A8EEB0E001C01D92AF35B207E1F710E08A
:100B7000A0E6B0E0E4E4F8E602C005900D92A83EDD
:100B8000B107D9F70E94042A0C94D9330C940000C1
:100B9000A82FB92F80E090E041E050EA609530E066
:100BA00009C02D9182279795879510F08427952766
:100BB000305EC8F36F5FA8F30895EADF8D939D93CD
:100BC0000895CF93CFB7CF93DF93C395839BE9F776
:100BD000839B10C0839B0EC0839B0CC0839B0AC069
:100BE000839B08C0839B06C0C0913904C395C09302
:100BF00039048EC06F93C0913804DD27C35CDB4F8E
:100C00002F9365E5839B03C02F916F91E1CF0F93E5
:100C10001F934F9320E040E15F9300B30C7003FB00
:100C200027F93F9350E03BE039C01C7040642F77B8
:100C3000012F5F5F1EC0406810B31C702F775250A9
:100C40001FC0406400B32F770C70D1F15F5F00C00C
:100C500023C0406210B32F771C7091F15F5F00C01A
:100C600025C00C701027515012F45D5F0000115028
:100C700027952C3F10B3C8F61C700127015027950B
:100C80002C3FC8F64227499300B30C7010274F73CE
:100C9000115027952C3FA8F64695469510B31C7029
:100CA00079F00127015027952C3F98F66B5A60F395
:100CB000315000B3B0F600C010E81ABF00271CC0C6
:100CC0003B503195C31BD04010E81ABF0881033C4C
:100CD00021F10B3411F1209136041981110F1213F7
:100CE000EDCF4A81441F093679F10D3211F0013EF2
:100CF00029F74F7009F0042F00933C043F915F9156
:100D00004F911F910F912F916F91CAB7C7FD5DCF82
:100D1000DF91CF91CFBFCF91189520913C04222332
:100D200069F310913A04112309F049C034300AF4F0
:100D300048C030933A0420933704109138043BE0C4
:100D4000311B309338043DC000913A040130BCF5AA
:100D50000AE54F7049F43091720034FD33C00093BE
:100D60007200C3E1D4E032C0433059F0443091F016
:100D700030911E0434FD26C000931E04CFE1D4E060
:100D800025C03091530434FD1DC000935304C4E5C5
:100D9000D4E01CC030912A0434FD14C000932A040E
:100DA000CBE2D4E013C0052710E000C0000002BB76
:100DB0001AC0052710E0221F1DC010E021C04AE51F
:100DC00002C032ED432FC4E1D0E032E011B31C6029
:100DD000939A02B311BB5CE020E865E320FF05278E
:100DE00002BB279517951C3FF0F66695B8F7B1F74B
:100DF00020FF052702BB279517951C3FD0F62795A6
:100E0000179517FF052700001C3F02BBB0F629917C
:100E10003A9519F7037F10913B04110FC651D0404A
:100E200002BB11F01093360410E81ABF086011B32A
:100E3000137F402F437F54E05A95F1F702BB11BB5B
:100E400042BB5CCFFC018381833081F130F481307F
:100E5000E9F0823019F180E00895813209F44EC042
:100E60008232C9F7248135812130310509F45BC014
:100E70002230310509F45EC0232B69F787E59AE03B
:100E80009093F1038093F00380E4089580E49BE065
:100E90009093F1038093F00382E1089585EE9AE048
:100EA0009093F1038093F0038BE508958281823063
:100EB000E9F050F4811112C081EE9AE09093F103B1
:100EC0008093F00384E00895833029F687E99AE05F
:100ED0009093F1038093F0038CE108958FEC9AE0F6
:100EE0009093F1038093F00380E1089585EB9AE0FD
:100EF0009093F1038093F00388E10895828181301B
:100F000061F0823069F08111A6CF87EF9AE090936B
:100F1000F1038093F00389E0089580E19BE0F7CF2F
:100F200080E39BE0F4CF25E33AE03093F103209394
:100F3000F00308958AEB99E09093F1038093F00316
:100F40008BE7089508958091EB03089588E198E078
:100F50000FB6F894A89581BD0FBE91BDA895F894E1
:100F6000D8E0CEE528E3299320E0299314BEFFCFF3
:100F700008959C014FB7F8948091540390915503C4
:100F8000A0915603B09157034FBF821B930B089556
:100F9000CF93DF9300D000D0CDB7DEB78FB7F894F2
:100FA00020915403309155034091560350915703BB
:100FB00029833A834B835C838FBF69817A818B81DC
:100FC0009C810F900F900F900F90DF91CF9108951B
:100FD0002FB7F8948091540390915503A091560334
:100FE000B09157032FBF08959C01FC0132968FEFFB
:100FF00090E04191461751F08F3F19F4411101C023
:10100000892F9F5F9630A9F78F3F09F40895280F25
:10101000311D87FD3A95F9016283089520915203AD
:10102000309153032817390771F09093530380933D
:101030005203E0915003F0915103309721F0008466
:10104000F185E02D0994089520914E0330914F03CE
:101050002817390771F090934F0380934E03E09166
:101060005003F0915103309721F00680F781E02D75
:1010700009940895E0915003F0915103309721F0C5
:101080000190F081E02D099480E00895CF93DF93E3
:10109000D82FC92F40911303509114036091150369
:1010A000709116032FB7F8948091540390915503D3
:1010B000A0915603B09157032FBF841B950BA60B2D
:1010C000B70B843F9140A105B10518F5809113033A
:1010D00090911403A0911503B091160380930F0310
:1010E00090931003A0931103B093120384EF91E047
:1010F000A0E0B0E080930B0390930C03A0930D034A
:10110000B0930E03D0931A03C0931B03DF91CF91CA
:1011100008950E94C80760930F0370931003809393
:1011200011039093120382E390E0A0E0B0E0E2CFDD
:10113000FC018481862351F482818823B9F06823DD
:10114000908593FF05C081E061110FC080E0089594
:10115000282F2F7082958F70282B962F9F70629565
:101160006F70692B81E02613F1CF089581E0FDCFE8
:10117000AC013091070360910803232F621301C073
:101180000895822F90E0FC01EE0FFF1FE150FD4F0C
:101190000190F081E02DE417F50791F467E0649F7A
:1011A000F001659FF00D1124EF50FD4F41E04483A5
:1011B0002313E6CF01968370992780930703089540
:1011C0000196282F2370DACF10928E0210928D0292
:1011D0008091F602811104C01092F5021092F7027C
:1011E0008091FD02811104C01092FC021092FE0257
:1011F000089581152CE5920741F4209187023091E2
:101200008802232B11F490E080E00895FA01811107
:101210000994FB01FDCF089580913D02982F9E7F98
:1012200029F48170826080933D0208958032E8F352
:1012300081708E61F8CF8F929F92AF92BF92CF92C2
:10124000DF92EF92FF920F931F93CF93DF93D82EED
:10125000C62EE901E42FF0E0E650FC4F611113C007
:101260004491942FE42FE98348839A83DF91CF91AF
:101270001F910F91FF90EF90DF90CF90BF90AF90B4
:101280009F908F900895062F10E0E49186E0D89EFD
:10129000700111242FEF30E0C701B9010E941C3307
:1012A0008D2D90E0880F991FF5E5F69FA001F79F1F
:1012B000500D1124841B950B982F990F890FA901AC
:1012C000401B510BE49FD001E59FB00D11244B2F23
:1012D000C89E60011124CD2CDD245901AC18BD0835
:1012E000EA9D6001EB9DD00C11249D2D4901881AC7
:1012F0009108809E5001819EB00C909EB00C1124EC
:10130000AB2CBB242A193B09E29F8001E39F100DFF
:10131000112463307105D1F08CEFE81683E0F806F4
:1013200070F461307105B1F062307105B9F08FEF82
:10133000E816F10408F097CF9B2F412F94CF64302B
:10134000710579F066307105B9F38DCF4D2D9E2F63
:10135000EB2F89CF4E2FED2D9B2F85CF912F4E2F29
:10136000F7CF9E2FE12F7FCF0E94E8072091D90170
:101370003091DA01232B21F08093D5019093D6018F
:101380002091DB013091DC01232B21F08093D301EC
:101390009093D401E0915003F0915103309749F0BC
:1013A00082E08093D7010480F581E02D87ED91E004
:1013B000099408959091D901803F59F48091DA0100
:1013C00087FF0DC01092DA0191110BC01092D1016C
:1013D00008C0813F81F48091DA0118169CF39923AB
:1013E00081F08091DB019091DC01892B09F064C0D0
:1013F0001092D0010895823F49F497FFF0CF1092E8
:10140000D9018091DA018111ECCFE0CF833F19F44B
:101410001916ACF3E4CF2091DB01893F29F41216B1
:10142000F4F61092DB01DBCF8A3F19F427FFD7CF08
:10143000F8CF2091DC018B3F29F427FFD0CF109209
:10144000DC01CDCF8C3F19F41216CCF3C8CF843F0A
:1014500031F48091D8018E7F8093D801C0CF853F31
:1014600021F48091D8018D7FF7CF863F21F48091C0
:10147000D8018B7FF1CF873F21F48091D801877FFE
:10148000EBCF883F21F48091D8018F7EE5CF8D3F4F
:1014900031F48091D2018E7F8093D201A0CF8E3F14
:1014A00021F48091D2018D7FF7CF8F3F09F097CF44
:1014B0008091D2018B7FF0CF08958091D20180FD81
:1014C00016C081FD16C082FD16C08091D001882310
:1014D000A1F0883280F428E0829FC001112468E2E4
:1014E00070E00E943033862F672B39F0089582E038
:1014F000089584E0089588E0089581E0089580913A
:10150000D20180FD14C081FD14C082FD16C08091FF
:10151000D101882381F08E3180F420E5829FC001C3
:1015200011246EE170E00E943033862F089584E12B
:10153000089588E2089588E0089580E50895803F41
:1015400031F40E947F0A81958093DA010895813FEA
:1015500019F40E947F0AF8CF823F31F40E947F0A7B
:1015600081958093D9010895833F19F40E947F0AE1
:10157000F8CF893F29F40E945D0A8093DB0108952A
:101580008A3F21F40E945D0A8195F7CF8B3F31F4A9
:101590000E945D0A81958093DC0108958C3F19F4C7
:1015A0000E945D0AF8CF843F31F48091D8018160B8
:1015B0008093D8010895853F21F48091D8018260FD
:1015C000F7CF863F21F48091D8018460F1CF873F27
:1015D00021F48091D8018860EBCF883F21F480917D
:1015E000D8018061E5CF8D3F31F48091D2018160D7
:1015F0008093D20108958E3F21F48091D2018260C0
:10160000F7CF8F3FB9F78091D2018460F1CF80E0AE
:101610000895F894E82FE295EF70F0E041A98F70FB
:1016200021E030E0B90102C0660F771F8A95E2F72A
:10163000CB01962F9095942391AB92A9892B82ABE5
:101640007894089590918E0192FF06C0282F2871FA
:101650002830F9F4877F846093FF06C0282F287113
:101660002831F1F4877E846120918F0120FF06C02C
:10167000382F38713830D9F4877F816021FF06C058
:10168000282F28712831D1F4877E816194FD877ECF
:101690000895282F24712430F9F68B7F8860DCCFE1
:1016A000282F2471243101F78B7E8861DDCF382FFC
:1016B0003171313019F78E7F8860E0CF282F21718A
:1016C000213121F78E7E8861E1CFCF93DF93EC014A
:1016D000803E910509F460C050F58133910509F40D
:1016E000A6C090F48932910509F49AC08A9709F44A
:1016F000A5C0C130D10509F462C0CE010497813A7A
:10170000910508F055C05BC089339105F1F182382D
:101710009105D9F1C59709F47CC0C83AD10508F004
:1017200094C0C53AD10528F3A497D06448C0843E3C
:10173000910509F453C068F4823E9105E1F1833EBE
:10174000910509F440C0CE01805E9109089780F5AB
:1017500036C0863E910509F44CC0873E910509F4D8
:101760004DC0811522E5920708F0AAC0811531E528
:10177000930708F0FAC08F3F910511F008F074C08C
:10178000803F910550F2D0651AC080918E01837020
:10179000B1F0C0EED0E013C080918E0180FD12C187
:1017A00090918F0190FF0BC0C3EED0E084FF07C083
:1017B000D0E0C0E004C080918E0182FDF5CFCE0163
:1017C000DF91CF91089580918E0182FDFEC09091AE
:1017D0008F0190FDDECF84FFF2CFEACF80918F01A1
:1017E00081FFEDCF80918E01C7EED0E084FDE0CF88
:1017F000E6CF80918E0183FDF7CFE1CF80918E01FE
:1018000083FDE6C090918F0191FFE5CFC4EED0E05B
:10181000D6CF80918E0185FFD2CFC9E2D0E0CFCF65
:1018200080918E0185FFCBCFC5E3D0E0C8CF8091FA
:101830008E0186FFC4CFCAE2D0E0C1CF80918E0175
:1018400086FFBDCFC1E3D0E0BACFCF3BD10508F0D2
:101850007ACFC85AD0E0CC0FDD1FC058DF4F0990B7
:10186000D881C02DD464ABCF811540E5940760F4D6
:10187000C11580E4D80708F075C0CE019A9581158E
:101880009F4108F49CCF94CFF4E096958795FA9504
:10189000E1F783702C2F26952695237040E2249F34
:1018A00090011124382B8C2F8370C1E0D0E002C04E
:1018B000CC0FDD1F8A95E2F7C22BD32BDC687FCFDC
:1018C000C11586E5D80730F5C11595E5D90708F0AB
:1018D00060C0C11524E5D207C0F49C2F969596955B
:1018E0009E0123703327C115D34508F043C0C1E0E2
:1018F000D0E002C0CC0FDD1F2A95E2F720E2929FD4
:10190000C0011124C82BD92BD9CFDC2FCC27C46F11
:10191000D06A55CFC1153AE5D30788F4C11549E51A
:10192000D40708F041C0CE0198558F3F910511F0C2
:1019300008F03ECFDC2FCC27C06FD06A40CFCE015D
:1019400090568115904208F033CF8D2F8F710E94F1
:10195000220B90E0982F882788279F719C012C2BC1
:10196000E90120C0DF70D06A2ACFD82FCC27C16F01
:10197000D06A25CFC1E0D0E002C0CC0FDD1F2A9590
:10198000E2F730E2939FC0011124C82BD92BDA680B
:1019900016CF8C2F0E94220BC82FD0E0DC2FCC2733
:1019A000CC27DF71D0620BCF8C2F8F700E94220B5F
:1019B00034E0D695C7953A95E1F7CF70DC2FC82F64
:1019C000D069FDCEC9E3D0E0FACEC2EED0E0F7CECA
:1019D000C6EED0E0F4CE80917101882331F01092F0
:1019E00071011092700110926F010895982F9095D7
:1019F00080911F03892380931F030895982F90954A
:101A000080911E03892380931E03089580911E03F5
:101A100090911F03892B8093EA00809171018823A4
:101A200019F10E94E80720916F0130917001821B2B
:101A3000930B8838934110F00E94EB0C8091EA00E0
:101A400090917101892B8093EA0020E08CEE90E068
:101A5000FC013081019631112F5F30E0823F930706
:101A6000B9F721110E94EB0C80911703809590919A
:101A7000EA00892390911803892B8093EA00E09172
:101A80005003F0915103309731F00280F381E02D43
:101A90008AEE90E009940895EF92FF920F931F93BE
:101AA000CF93DF93EC018A85811134C0EB80FC80F9
:101AB00087E5F81A26E12E9DC0012F9D900D112477
:101AC000DC01AE5DBC4F1496ED91FC9115973097FB
:101AD00031F054966D917C91885D9C4F099586E11B
:101AE0008E9D80018F9D100D11240E5D1C4FF801FD
:101AF00087810E94FE0CF80180850E94F60C0E94EE
:101B0000060D188219861B861E821D8210922103E3
:101B100010922003DF91CF911F910F91FF90EF90D2
:101B20000895CF93DF93EC01898981111BC081E077
:101B3000898B80911E039F81892B80931E03809146
:101B40001F039885892B80931F030E94060DEA814D
:101B5000FB81309739F06C897D89CE010696DF9143
:101B6000CF910994DF91CF91089510926E01109258
:101B70006D0110926C01089580916B01811110929A
:101B80006B010895ECEEF0E09191891303C0DF0141
:101B900011971C9290E0E23FF907B1F70895809108
:101BA0006A0190912901981301C008958F5F877091
:101BB000FACFE82F9E3F41F18AE0989FE00D112473
:101BC0009E2F9770E695E695E69583E0E89FF001F5
:101BD0001124EC50FF4F50E040E080E0219130E0D4
:101BE000092E02C0369527950A94E2F72170332713
:101BF000042E01C0220F0A94EAF7822B4F5F5F4F39
:101C00004330510559F7089580E00895E82F9E3F2D
:101C100061F18AE0989FE00D11248E2F877041E0DA
:101C200001C0440F8A95EAF7E695E695E69583E0CC
:101C3000E89FF0011124EC50FF4F30E020E070E00D
:101C40005191DF011197CB01022E02C09695879525
:101C50000A94E2F7817081958527842385278C93E8
:101C60002F5F3F4F2330310559F7089590E080E012
:101C70000E94240890E080E00E940E0810921F034A
:101C80000E94060D86E0E7EDF1E0DF011D928A95E6
:101C9000E9F71092D1011092D0011092D2010C9468
:101CA000B409882321F00E94F60C0C94060D0895C7
:101CB000882339F090911F03892B80931F030C9484
:101CC000060D0895882321F00E94FE0C0C94060D49
:101CD0000895882339F090911E03892B80931E0369
:101CE0000C94060D0895882361F19CEF980F913AAA
:101CF00020F40E94C20D0C94060D90E2980F9830CB
:101D000050F4877091E001C0990F8A95EAF7892F06
:101D10000E94FE0CF0CF9BE5980F933020F490E0EA
:101D200080E00C94240898E5980F973120F490E017
:101D300080E00C940E08803F20F00E94DA090C9499
:101D4000B4090895FF920F931F93CF93DF93F82E5A
:101D500000911C0310911D030115110509F449C0E0
:101D600010921B0310921A0310921703109218037B
:101D7000D8011696CD91DC91CE019A9581159F419F
:101D800008F4D07ED1E0C11101C0D0E0D80119968D
:101D9000ED91FC911A97309731F01B966D917C91E3
:101DA00080E00995D823DD2339F08CEF8C0F813A40
:101DB00038F58C2F0E94C20DFF2099F0E0911C0392
:101DC000F0911D03808584FD0CC080911903882348
:101DD00041F0808191819C0121503109253A3D4596
:101DE000A8F00E94060D10921D0310921C03109281
:101DF0001903C801DF91CF911F910F91FF900895B2
:101E00000E94060D8C2F0E94730ED6CF0E944608AA
:101E1000E8CFCF93C82F882309F44EC08CEF8C0FE6
:101E2000813A90F4ECEEF0E082EF90E02191C2175D
:101E3000E9F18E179F07D1F76C2F8AEE90E00E9490
:101E4000F407CF910C94060D80E28C0F883068F473
:101E5000C77021E030E001C0220FCA95EAF78091F7
:101E60001E03822B80931E03ECCF8BE58C0F8330F7
:101E700038F42C2F2452330BC901CF910C94240831
:101E8000E8E5EC0FE73150F4F0E0EE0FFF1FE0580B
:101E9000FF4F80819181CF910C940E08C03F60F07C
:101EA0008C2F0E949F0ACF910C94B4098C2F0E9412
:101EB000C20D0E94060DC0CFCF9108950F931F93BE
:101EC000462F572FBC01DC01CA01F4E0B695A79557
:101ED00097958795FA95D1F70097A105B10501F17E
:101EE000AC01BD0184E08A019B01E2E036952795B3
:101EF00017950795EA95D1F70115110521053105CB
:101F000019F08E5FB901A8017695679557954795A9
:101F1000452B462B472B09F08F5F1F910F9108959A
:101F200080E0E1CF9C019A9581159F4150F5D90140
:101F3000AA27B170F901EE27F270B9016627747013
:101F4000A9014427587034FF0EC080E1AB2B09F47F
:101F500080E0EF2B09F08062672B09F08064452B4D
:101F600089F08068089581E0AB2B09F480E0EF2BC5
:101F700009F08260672B09F08460452B19F08860B6
:101F8000089580E00895CF93DF93EC010E94730ED3
:101F9000CE010E94920F9E01205E3109283031054A
:101FA00010F0CD2B21F4DF91CF910C94620EDF91D4
:101FB000CF910C94510ECF93DF93EC010E94920FBE
:101FC0009E01205E31092830310510F0209739F448
:101FD0000E94690E8C2FDF91CF910C94090F0E9403
:101FE000580EF8CFCF93DF9380913A04835087FD4A
:101FF00014C090913804CCE0D0E0C91BD109C35C77
:10200000DB4F90913704903108F070C0883009F4AC
:1020100058C01092E00310923A048091720084FF3D
:1020200043C0809171008F3F09F43EC0C82F8930B2
:1020300008F0C8E0982F9C1B9093710090911304B6
:1020400028E8922790931304882301F18091F003EC
:102050009091F1032091EF0326FF0AC1FC012C2F80
:1020600044E154E03491DA013C934F5F5F4F319685
:102070002150C1F79C012F5F3F4F8FEF8C0F820FD4
:10208000932F911D9093F1038093F0036C2F84E1C3
:1020900094E00E94DD0584E08C0FC83019F09FEFBA
:1020A000909371008093720084E190B39C7031F43E
:1020B0008150D9F710923B0410923604DF91CF91F2
:1020C00008958091E003893108F0A3CFE82FF0E074
:1020D000EE50FC4F9E01285F3F4F999191932C1732
:1020E0003D07D9F7885F8093E00395CF9D3209F0D3
:1020F000A3C0883009F08FCF83EC809313048AE566
:10210000809372001092EF038881807609F447C0B3
:10211000803229F58981813099F48C819D81892BC8
:10212000F1F482EE93E09093F1038093F00388E062
:102130009F81911131C09E81981770F5892F2CC015
:10214000823041F481EE93E09093F1038093F003A9
:1021500081E0EECF8A3029F48B818093E10380E027
:10216000E7CF8930E1F78A819B818115924069F43C
:102170008C819D81892B49F481E08093EE038E81CF
:102180009F819093ED038093EC03888187FF52C079
:102190008E8190E89093EF03809371003CCF2A8169
:1021A00010921C04998191110AC010921D042CE117
:1021B00034E082E03093F1032093F003B9CF9530FF
:1021C00029F420933B042CE134E0F4CF9630C1F4A1
:1021D0009B81913049F4CE010E94220790E49093B4
:1021E000EF038F3F91F2A4CF9230A9F3933099F38C
:1021F000913289F3923279F390E49093EF0398CF80
:10220000983089F0993019F42093EA03DCCF9A30A2
:1022100071F09B30C1F69BE490931F04909354049B
:1022200090932B04D0CF2AEE33E081E0C3CF2CE192
:1022300034E0FBCF8FEFADCF8091EF0387FFEBCE84
:102240008091EC039091ED03892B71F08091EE0366
:10225000813051F488818093EB031092ED0310924A
:10226000EC0310927100D7CE8EE180937200D3CE32
:10227000DC012C2F44E154E0FA013D9130834F5FA3
:102280005F4F2150C9F7F6CE1F93CF93DF93782F7E
:10229000162FEA01888184FF1EC0898128E88227E1
:1022A0008983AE014E5F5F4FFA01272F392F710FDF
:1022B000D9012F5F3F4F8C918193872F821B181676
:1022C000BCF3612FCA010E94DD051C5F1883DF91FA
:1022D000CF911F9108958AE58883E3CFCF93DF9351
:1022E000C2EFD3E080912A0484FF18C04AE254E090
:1022F00068E0CE010E944411289684E0C231D807DC
:1023000089F780912A0484FF0CC04AE254E060E01F
:1023100090E080E0DF91CF910C9444110E94F20F85
:10232000E1CF0E94F20FEDCF2091530424FF05C0AE
:1023300043E554E066E00C94441108959B019091AC
:10234000DF03981307C04091DD035091DE03461769
:102350005707B9F08093DF033093DE032093DD034A
:102360008093DA033093DC032093DB0380915304E2
:1023700084FF07C043E554E063E08AED93E00C94EA
:1023800044110895BC0184E00C949E11BC0183E0CB
:102390000C949E11CF93DF93CAE0D0E080911E048D
:1023A00084FF1CC08091D8039091D903981799F0AD
:1023B00028E0829FC00111244EE154E068E0885A71
:1023C0009C4F0E9444118091D80390E001968F7039
:1023D00099278093D803DF91CF9108950E94F20F3F
:1023E0008FE99FE00197F1F700C000002197B1F657
:1023F000F2CFCF93DF93D82FC92FA091D903B0E0AC
:10240000CD0101968F7099272091D803281781F06C
:1024100093E0AA0FBB1F9A95E1F7A85ABC4F98E02A
:10242000ED2FFC2F01900D929A95E1F78093D9033F
:102430000E94F20F0E94CA1188E0ED2FFC2FA2EE3D
:10244000B3E001900D928A95E1F7DF91CF91089565
:102450001F93CF93DF93182FEB010E94090F8FE991
:102460009FE00197F1F700C000002197C1F7812F8D
:10247000DF91CF911F910C94730EAF92BF92CF92C8
:10248000DF92EF92FF920F931F93CF93DF93EC01B4
:102490008AE0A82E2881222309F49CC0213009F06B
:1024A0003FC099818A81913051F422966AE070E0B0
:1024B000893311F460E570E00E94281205C0923063
:1024C00029F422960E94090F2196E4CF933021F43B
:1024D00022960E94730EF8CF943011F02196F4CF1B
:1024E000229630E020E0AE014F5F5F4F8053990BA2
:1024F0008A30910550F02150310930F38FE99FE087
:102500000197F1F700C00000F6CFA29EB001A39E94
:10251000700D11249C01260F371F8981EA01E3CF3A
:10252000E22FF0E0EE55FF4FB490822F869586950E
:10253000869590E0FC01EE56FF4FE4902770F12C59
:10254000022E02C0F594E7940A94E2F731E0E32208
:10255000FF24FC01EE57FF4FC490D12C022E02C085
:10256000D594C7940A94E2F731E0C322DD24FC013C
:10257000EE58FF4F049110E002C0159507952A957B
:10258000E2F701701127E114F10419F081EE0E94C5
:10259000090FC114D10419F086EE0E94090F89E3D6
:1025A0006AE070E0B81202C060E570E08B2D0E9416
:1025B0002812CD2819F086EE0E94730EEF2819F02C
:1025C00081EE0E94730E012B09F47ECF6AE070E069
:1025D0008CE272CFDF91CF911F910F91FF90EF901E
:1025E000DF90CF90BF90AF900895CF93DF93EC0131
:1025F0000E94DB0FC933D10571F42FEF87EE93E012
:10260000215080409040E1F700C00000CE01DF91F2
:10261000CF910C94C30F8FE39CE90197F1F7F4CFAE
:10262000CF93DF93C3E3D3E060E0CE010E949F33FA
:102630002196C11584E0D807B9F7DF91CF910895AD
:102640000F931F93CF93DF938901833048F56C304C
:1026500038F54A3028F521153C4531F420918702A0
:1026600030918802232BE1F0C42FD0E0CC0FDD1F86
:1026700094E1699FC00DD11D112490EF899FC00D79
:10268000D11D1124612FCE0187960E949F33602FA8
:10269000CE018896DF91CF911F910F910C949F33BB
:1026A000DF91CF911F910F910895CF93C82F6FEFB6
:1026B000811163E883E290E00E949F336FEFC111C4
:1026C0006EE084E290E00E949F336FEFC11163EAF5
:1026D00085E290E0CF910C949F337F928F929F92EE
:1026E000AF92BF92CF92DF92EF92FF920F931F9320
:1026F000CF93DF93CDB7DEB76E970FB6F894DEBFFA
:102700000FBECDBF809087029090880281E090E05C
:102710009093880280938702B12CA12C712C6501C3
:1027200000E014C0F70125913491412F602F872DCF
:102730000E94201322E0E20EF11C1F5F1A3091F775
:102740003AE0C30ED11C0F5F0C3049F0C601880F70
:10275000991FFC01E650FA4F7F0110E0E3CF73941C
:10276000F8E7AF0EB11C23E07212D9CF1A8219829A
:102770001C821B821E821D8218861F8288EC90E0BC
:102780009A8789874AE050E067EF72E0CE010196B0
:102790000E94C2334AE050E061E073E0CE0101964E
:1027A0000E94C2337E013BE0E30EF11CF70111925F
:1027B0001A95E9F74AE050E06BE073E0C7010E9428
:1027C000C2334AE050E065E173E0C7010E94C233C2
:1027D0008E010B5E1F4F89E0F80111928A95E9F78F
:1027E0008FEF9FEF9A8F898F87E08E8F4AE050E0BE
:1027F0006FE173E0C8010E94C2334AE050E069E231
:1028000073E0C8010E94C2339092880280928702CE
:102810006E960FB6F894DEBF0FBECDBFDF91CF919D
:102820001F910F91FF90EF90DF90CF90BF90AF90EE
:102830009F908F907F90089580E00E94551360E0F4
:1028400086E290E00E949F330E946D130E94101355
:1028500081E00C945513282FCB01223068F43AE024
:10286000239FB001112469507D4F4AE050E00E943F
:102870007B3390E080E008958FEF9FEF0895CF9332
:10288000DF93CDB7DEB72A970FB6F894DEBF0FBE41
:10289000CDBF8DE598E2909323038093220387E8D0
:1028A00098E2909325038093240384EC97E290931D
:1028B0002703809326031092370310923603BE013C
:1028C0006F5F7F4F80E00E942B14892B31F4898544
:1028D0009A8590933503809334038DE598E2909325
:1028E00039038093380387E898E290933B03809301
:1028F0003A0384EC97E290933D0380933C0381E09C
:1029000090E090934D0380934C03BE016F5F7F4F27
:102910000E942B14892B31F489859A8590934B035F
:1029200080934A032A960FB6F894DEBF0FBECDBF40
:10293000DF91CF9108950F931F93CF93DF9383304F
:1029400030F56C3020F54A3010F5C42FD0E0CC0FB4
:10295000DD1F24E1629FC00DD11D112430EF839F44
:10296000C00DD11D1124CE0187960E948B33082FF4
:1029700010E0102F0027CE0188960E948B3398011B
:10298000282BC901DF91CF911F910F91089590E0FD
:1029900080E0F8CF462F672F20918B0230918C0278
:1029A000232B89F47E3F39F44E3F69F480918902EC
:1029B00090918A020895833030F47C3020F44A30BC
:1029C00010F40C949B1490E080E00895DF92EF9255
:1029D000FF920F931F93CF93DF937C01009112041A
:1029E00080917201082BC7E0D0E010E0DC2EC80116
:1029F0000C2E02C0959587950A94E2F780FD0CC0D5
:102A00002197A0F7D12C8D2DDF91CF911F910F91A0
:102A1000FF90EF90DF900895B7018C2F0E94CA14A9
:102A20000E94650B019761F3EECFCF93DF93D82F10
:102A3000C92F0E94E6146D2F7C2F0E94CA14DF91CB
:102A4000CF910C94650BFC01868197810097A1F0D2
:102A50000E94650B282F92959F709630B9F088F4EC
:102A6000925F9F70923030F481E0203FA9F058F4DB
:102A7000283E58F080E00895808191810E941515CC
:102A8000E9CF9A5FEECF243FA9F7089581E0283E71
:102A9000E0F3213F79F7F9CF08951F93CF93DF93A8
:102AA00000D000D00F92CDB7DEB79C01FC0186812B
:102AB0009781009741F585E0DE01119601900D9216
:102AC0008A95E1F7F901228189819A812223B9F05F
:102AD0006623A9F00E94E614182F682F89819A8135
:102AE0000E94060E69817A81812F0F900F900F90BE
:102AF0000F900F90DF91CF911F910C94CA140E94F8
:102B0000D90D182FEFCF0F900F900F900F900F90BF
:102B1000DF91CF911F91089583E290E00E948B3363
:102B2000833889F484E290E00E948B338E3059F42C
:102B300085E290E00E948B3391E0833A09F090E0C7
:102B4000892F8170089580E0FCCF8F929F92AF9281
:102B5000BF92CF92DF92EF92FF920F931F93CF938A
:102B6000DF93CDB7DEB72A970FB6F894DEBF0FBE5E
:102B7000CDBF09E612E083E6C82E82E0D82E9FE1A1
:102B8000E92E93E0F92E26E0922E32E6A32E32E0D3
:102B9000B32E88248394D6010D931D936D014AE0D2
:102BA00050E0B701CE0101960E947B33F8013996BF
:102BB000DF01892D1D928A95E9F789819A81D801D3
:102BC00011969C938E938F8112968C9312978D8180
:102BD00013968C931397888514968C9314978985F4
:102BE00015968C9315978B819C8117969C938E9349
:102BF000169718961C9218978A8587FF4BC01E96C9
:102C00001C921E921D9780FF03C0D80118968C92CB
:102C100081FF04C0F80190859260908782FF07C011
:102C2000D80118969C911897946018969C9383FFEE
:102C300004C0F80190859860908784FF07C0D80190
:102C400018969C911897906118969C9385FF04C0E4
:102C5000F801808580628087015F1F4FFAE0EF0EE8
:102C6000F11C83E3E81683E0F80609F094CF2A9676
:102C70000FB6F894DEBF0FBECDBFDF91CF911F918D
:102C80000F91FF90EF90DF90CF90BF90AF909F900B
:102C90008F900895F801B686A586B5CF0F931F9340
:102CA000CF93DF93CDB7DEB72A970FB6F894DEBF88
:102CB0000FBECDBFEEE4F2E084E1DF011D928A9504
:102CC000E9F723EF32E08CE0D9011D928A95E9F70C
:102CD00001EF12E0D801ED93FC934AE050E06BE085
:102CE00073E0CE0101960E947B3388E0FE013196AD
:102CF000AEE4B2E001900D928A95E1F789859A855C
:102D0000F8019383828388E592E0908787834AE085
:102D100050E065E173E0CE0101960E947B3388E0CC
:102D2000FE013196A8E5B2E001900D928A95E1F797
:102D300089859A85D8011A969C938E9319972A961D
:102D40000FB6F894DEBF0FBECDBFDF91CF911F91BC
:102D50000F910895ECEEF0E086E0DF011D928A9578
:102D6000E9F70C94360E5F926F927F928F929F924A
:102D7000AF92BF92CF92DF92EF92FF920F931F9389
:102D8000CF93DF9300D000D00F92CDB7DEB7809104
:102D90003D0280FD0AC0E8EEF1E01182108212824D
:102DA000339622E0EC33F207C1F78090E601909071
:102DB000E7018114910409F457C080FF55C0D12C5C
:102DC000C12C66246394712C53E0552E8091E5014B
:102DD00093010C2C01C0220F0A94EAF7822309F414
:102DE0003BC0F601EE0FFF1FE80DF91DE590F490D2
:102DF000E114F104C9F145E050E0B701CE010196BC
:102E00000E94513309810F3F39F18A81800F992740
:102E1000991F8D31910514F08CE190E05C01AA0CB2
:102E2000BB1C8A0D9B1D9C0128513E4F5901059DDD
:102E30008001112408511E4F0A151B0520F035E0B2
:102E4000E30EF11CD8CF98014D816C818B810E94DB
:102E50001B090D5F1F4FF0CF5FEFC51AD50A88E041
:102E6000C816D10409F0B2CFB89A38B33E7F28B360
:102E700021604FB7F89488EE91E0FC0101965081F3
:102E800068E028BB000000C057FF38BB550F0000AA
:102E900000C000C000C038BB00C06A9591F752E086
:102EA0008C33950751F74FBF8FE594E00197F1F709
:102EB00000C000000F900F900F900F900F90DF91C7
:102EC000CF911F910F91FF90EF90DF90CF90BF9027
:102ED000AF909F908F907F906F905F900895EF924A
:102EE000FF921F93CF93DF93EC0188EEE82E81E0F1
:102EF000F82E10E08C8197014091400260913F02D2
:102F0000810F0E941B09175F83E0E80EF11C1C3F34
:102F100089F70E94B3169A818C8190FF08C08F5F59
:102F20008C83DF91CF911F91FF90EF900895815096
:102F3000F7CF90913D0290FF0CC0E8EEF1E0818365
:102F400060834283339692E0EC33F907C1F70C9427
:102F5000B31608950F931F93CF93DF9300D00F9272
:102F6000CDB7DEB78C0180913C0281110AC09E0171
:102F70002F5F3F4F4FEF6FEF0E941B098A818093B5
:102F80003C02F8016481613049F06230F1F08091D7
:102F90003C0240E0662331F040E019C060913C0201
:102FA00040E080E00E949917F801848190E001964A
:102FB00063E070E00E94303384830F900F900F9095
:102FC000DF91CF911F910F91089540913C0280E0D5
:102FD00060E0E8CFCF93DF9300D00F92CDB7DEB79C
:102FE00090913D0290FF0AC09E012F5F3F4F0E94CB
:102FF0001B094B8169818A810E9499170F900F905C
:103000000F90DF91CF910895CF93DF93EC01EDE323
:10301000F2E0438162818C810E94EA178C818F5F8C
:103020008C83DF91CF910895CF93DF93EC01EC81F6
:10303000F0E0E650FB4F4491EDE3F2E062818181E4
:103040000E94EA178C818F5F8C83DF91CF91089566
:103050000F931F93CF93DF938B01D82FC92F0E941B
:103060000C09A8016D2F7C2F88E090E0DF91CF91B3
:103070001F910F910C94B033EF92FF920F931F9317
:10308000CF93DF9300D000D000D00F92CDB7DEB742
:10309000082FF62E142FE22E80913D0280FF2AC0C9
:1030A000E82FE695F0E0E852FF4F90819093E3011E
:1030B0008E7F823061F59E012F5F3F4F802F0E94EF
:1030C0001B094B8169818A810E94991700933E02F6
:1030D000F0923F0210934002EE2061F080913D0299
:1030E00090913E02A0913F02B0914002BC01CD01FF
:1030F0000E94281827960FB6F894DEBF0FBECDBFEA
:10310000DF91CF911F910F91FF90EF900895923032
:1031100019F410914002DACF963019F400913E0272
:10312000D5CF993099F6FACFEDE3F2E0438128E06C
:10313000421B08F440E021E0628181810C943C183C
:10314000EDE3F2E0438128E0420F08F44FEF21E085
:10315000628181810C943C18EDE3F2E0628128E009
:10316000621B08F460E021E0438181810C943C18EB
:10317000EDE3F2E0628128E0620F08F46FEF21E0F6
:10318000438181810C943C18EDE3F2E0818121E0E0
:103190004381628188500C943C18EDE3F2E0818118
:1031A00021E043816281885F0C943C18CF93DF93C8
:1031B00000D000D0CDB7DEB780914102882319F04E
:1031C00081508093410280913D0290913E02A091F6
:1031D0003F02B091400289839A83AB83BC83BC01D8
:1031E000CD010F900F900F900F90DF91CF910C9425
:1031F0002818CF93DF9300D000D0CDB7DEB78091F1
:103200004102833018F48F5F8093410280913D0228
:1032100090913E02A0913F02B091400289839A832F
:10322000AB83BC83BC01CD010F900F900F900F902A
:10323000DF91CF910C942818CF93DF9300D000D06A
:10324000CDB7DEB790913D0290FF49C091708111DA
:1032500035C0926090933D02662381F080913D02DB
:1032600090913E02A0913F02B091400289839A83DF
:10327000AB83BC83BC01CD010E94281860913D0244
:10328000669570E041E050E08FE690E00E945A338E
:10329000892BD9F01092E40181E08093E00120E0D5
:1032A0004091400260913F0280913E020F900F904A
:1032B0000F900F90DF91CF910C943C18803110F05B
:1032C0009E61C8CF880F982BC5CF81E08093E40121
:1032D0000E94E8079093DE018093DD01DDCF0F901F
:1032E0000F900F900F90DF91CF91089521E030E083
:1032F000A90102C0440F551F8A95E2F7CA01209127
:10330000E501662369F0822B8093E5018091E40159
:10331000811109C080913D0260E086950C941C19D2
:1033200080958223F1CF0895CF93C82F82FB662723
:1033300060F9811101C060E082E00E947619C093BB
:103340001204CF910C94360E80911204982F96702F
:10335000963019F488600C949419877FFCCF21E093
:1033600030E001C0220F8A95EAF72095809112047F
:1033700082230C94941990916E01809589238093F7
:103380006E01282F277091F4282F082E000C330B84
:103390009217130659F090918F0192FD07C0859501
:1033A000859585950E94AF190C94B50D0895CF931E
:1033B000C0918F01C2FB992790F9981799F080FB73
:1033C000C2F9C0938F0160918E0184E090E00E9469
:1033D0009F336C2F82E290E00E949F3382E0CF9176
:1033E0000C94BB19CF91089521E030E001C0220F69
:1033F0008A95EAF780911204822B0C94941990918B
:103400008F0192FD10C098E0899F90011124622BDA
:1034100060936E010E94F4190E94E80790936D0179
:1034200080936C0108950C94F419CF93C82F81FBFD
:10343000662760F9811101C060E081E00E94761981
:10344000C0937201CF910C94360ECF93C82FC170E8
:1034500081FB662760F980E00E9476196C2F84E07A
:10346000CF910C94761990913D0296958FEF890F2C
:10347000913009F48FE061E00C941C1980913D02B9
:1034800086958F5F803108F081E061E00C941C1913
:1034900090913D0290FF07C09695981720F09617DF
:1034A00010F40C943E1A61E00C941C19CF93DF9336
:1034B00000D000D0CDB7DEB7EDE3F2E083E080834B
:1034C00011828FEF82838383148280819181A28114
:1034D000B38189839A83AB83BC83BC01CD010F90F8
:1034E0000F900F900F90DF91CF910C94281869EEF8
:1034F0007EEF90E080E00E94BC3360E082E090E0EC
:103500000E949F3360E083E090E00E949F3310921E
:10351000720160E084E090E00E949F3360E082E20C
:1035200090E00E949F3360E085E090E00E949F332E
:1035300060E086E090E00E949F336FEF87E090E0CC
:103540000E949F3340E050E0BA0188E090E00E9482
:10355000B03360E08DE090E00E949F3340E050E0A7
:10356000BA0188E190E00E94B03360E087E190E02A
:103570000E949F3340E050E0BA018CE190E00E944D
:10358000B03370E060E080E290E00E94BC3340E045
:1035900050E0BA0188E190E00E94B03380E00E94E0
:1035A00055130E941C1440E050E0BA018FE090E0F7
:1035B0000E94B03340E050E0BA0183E190E00C9407
:1035C000B0332F923F924F925F926F927F928F9281
:1035D0009F92AF92BF92CF92DF92EF92FF920F93A2
:1035E0001F93CF93DF93CDB7DEB72A970FB6F8942A
:1035F000DEBF0FBECDBF7C01DC0113968D919C9187
:103600001497892B39F08C9111969C9189238F3FC7
:1036100009F0EDC52A960FB6F894DEBF0FBECDBFF8
:10362000DF91CF911F910F91FF90EF90DF90CF909E
:10363000BF90AF909F908F907F906F905F904F90D2
:103640003F902F900895D60116968C911697882357
:10365000D1F019968D919C910817190739F4809132
:103660002003909121030817190769F0F601978646
:1036700014870387C6010E94910DC60106960E9419
:103680004C0D10921F03FFEFAF1ABF0A26E1C20EC6
:10369000D11CC5C5C80182519F45409708F09BC504
:1036A0008FEF93E00E948B335EEED52ED00E03E3B6
:1036B00013E08823F9F080916E01877009F4AACF96
:1036C000D70112968C91882309F4A4CF80918F01A1
:1036D00082FDA0CF82E00E94BB199CCF011534E08F
:1036E000130749F3C8010E948B33811101C0DA949A
:1036F0000F5F1F4FD110F2CF809173009091740033
:10370000A0917500B091760089839A83AB83BC83C6
:1037100099249A9468018FEFC81AD80AC8010E94A8
:103720008B3389831A82882331F2813009F074C087
:10373000580192E0A90EB11CC6010E948B33D82E0D
:103740008A83882309F4B7CFC5010E948B33C82E22
:103750008FEF8D0D833068F45801A3E0AA0EB11CE1
:10376000CB82CC2021F0CE0101960E943D12850132
:10377000D1CF8BEF8D0D833030F5C8010396CB820E
:103780005C01CC20A1F35801B4E0AB0EB11C0E9447
:103790008B338C83882359F38B819C818130EFEFAD
:1037A0009E0710F0982F8827F6E0DF1631F027E00B
:1037B000D21631F00E944B28DACF0E941B28D7CFB7
:1037C0000E949527D4CF34E0D312D1CF580184E0A2
:1037D000A80EB11CC80103960E948B33282FCC2061
:1037E00009F469CF882309F466CF2150330B929EE8
:1037F000A001939E500D1124AC2DA150BB0BCD0107
:10380000840F951F019708F4B2CFEFE9FFE03197DD
:10381000F1F700C00000F6CFCE0101960E943D12E4
:103820005601A5CF81E00E94F4190E94A41943CF4C
:1038300081E00E94AF19F9CF82E0FBCF823009F01E
:1038400038C58091480290914902892B09F431C50D
:1038500026E12C9DC0012D9D900D11248E5D9C4F65
:10386000DC0150961C920E94910D23C581E080934B
:10387000600021CF80916000882309F414C44801BE
:1038800080EE881A91082090710180916B01282A9E
:1038900080911E03282A98E08916910408F086C0BA
:1038A00098012770332781E090E001C0880F2A95A6
:1038B000EAF7332009F477C0282AD7018D919C912B
:1038C0000E94D90D21E030E0390102C0660C771C5E
:1038D0008A95E2F7E0911C03F0911D03FA87E987CE
:1038E0004090F2005090F3001D822D81E22FF0E015
:1038F000EE0FFF1FED59FD4FC080D180C114D104E0
:1039000009F454C4211005C0D60112968C9181117E
:1039100089C0F601838190E086219721892B09F4E3
:1039200081C08085982F977009F487E0F8E08F16A2
:10393000910408F055C0332009F44EC0869581707B
:10394000882309F46FC0D601AD90BC900A151B0501
:1039500019F4332009F466C0E985FA85CE16DF062E
:1039600009F460C0D6011D96ED91FC91309721F0CD
:103970008081882309F456C0622DC6010E949808F0
:10398000882309F44FC00A151B0509F0B0C40115BE
:10399000110509F4B1C43110B1C4A414B50409F07F
:1039A00041C0312CABC48095282287CF332009F445
:1039B000E6C31093F3000093F2000E94C8076093DF
:1039C00013037093140380931503909316031092BE
:1039D0001B0310921A0371CF82FB882780F9B0CFA6
:1039E000332001F18170ACCF0E94730EA6C40497FE
:1039F000813A910558F46A2D8AEE90E00E94F4070E
:103A0000332009F450C30E94060D55CE0E94060DC6
:103A10008FE39CE90197F1F700C000008A2D0E9416
:103A2000090FEECF9D819F5F9D835FCFFC012081B9
:103A300031810217130709F02FC331102FC31092E1
:103A4000190380E0C5C3882309F47CC3F60181898A
:103A5000882309F477C3C501885D9C4F0E944C0DF3
:103A600071C30D351D4509F426CEF7018681978176
:103A7000009709F4DBC00E94650B8C01F701C2803E
:103A8000B580B2942FE0B22280916E018770C1F0B0
:103A9000AC2CCC20B1F0812F807F803421F080E2EB
:103AA000800F883068F080918F0182FD09C082E02C
:103AB0000E94BB1980916E018770AA24A394811182
:103AC000A12C812F82958F70882E912C8C3008F03C
:103AD0002BC1F401E552FC4C0C94443380913D021F
:103AE00080FF21C08E7F80933D0280913D029091A6
:103AF0003E02A0913F02B09140028D839E83AF832E
:103B0000B887BC01CD010E9428181092E4019FEFF4
:103B1000A0E7B2E09150A040B040E1F700C0000043
:103B20000E94B316C8CD816080933D0261E0869506
:103B30000E941C19C0CD43E35AE16EE37AE10E9472
:103B40000609B9CD4EE35AE163E37AE1F8CF44ECDC
:103B500058E16DEC78E1F3CF4DEC58E164EC78E19D
:103B6000EECF4CEA58E168EB78E1E9CF48EB58E159
:103B70006CEA78E1E4CF44E958E160EA78E1DFCF2C
:103B800040EA58E164E978E1DACF46ED58E169EFBF
:103B900078E1D5CF49EF58E166ED78E1D0CF61E02B
:103BA00081E0C6CF65E082E00E94481A84CD68E0DB
:103BB00086E0FACF6EE089E0F7CF61E08FE0B8CF22
:103BC0000A35EDE51E0771F158F401152CE51207D1
:103BD000C9F00E3D1C4509F048CF0E94771A6BCD05
:103BE0000B358DE5180701F10C351D4509F03DCF6A
:103BF00080918F0182FB882780F991E089270E94BC
:103C0000D71933CF10921E030E94AA16AFEFB4E368
:103C1000ECE0A150B040E040E1F700C000000E949D
:103C2000A60749CD81E0EBCF80E0E9CF8281C0805B
:103C3000D180882369F0C6010E94E614182F682FEE
:103C4000C6010E94060EB601812F0E94CA1413CF2E
:103C5000C6010E94D90D182FF6CFF12FFF70DF2E6D
:103C6000107F19F0D29490EFD922CC20B9F0DD204A
:103C700069F080E2800F883010F0011109C0809156
:103C80001E03D82AD0921E030E94060D802F4AC020
:103C900080911F03D82AD0921F03F6CF802F0E9455
:103CA000730EDD2009F440C080E2800F883010F0F0
:103CB000011104C08D2D0E94FE0C03C08D2D0E94A9
:103CC000F60C0E94060D30C0212F2F70D22E107FCF
:103CD000103219F0D29480EFD822002399F00130ED
:103CE00009F490C0CC2009F499C0BB2009F46EC03F
:103CF000D70115968C91159780FFC8CF8F701596B8
:103D00008C9364C080918F0182FF3BC0CC2099F1DD
:103D1000DD2039F080911E03D82AD0921E030E9424
:103D2000060D80E00E94090F98E0891A9108A4E02E
:103D30008A16910420F40E943A080E94251AAA20AB
:103D4000A9F080916E0180FD11C0F7011282859566
:103D5000859585950E94F419C7010E94E11A80910A
:103D60006E018595859585950E94AF1960E0C70124
:103D70000E944D154FCC80E00E94730EDD20A1F211
:103D800099CFCC2039F1B11004C0809171018D29F7
:103D90001EC031E0B31210C082FDC6CF8091710108
:103DA000D82AD81609F20E94E807909370018093F0
:103DB0006F01D0927101B8CF85E0B812E6CF0E94B2
:103DC000EB0C80916B01D812D0926B018D2D0E946B
:103DD000690EAACFB11006C00E94EB0C8D2D0E9477
:103DE000620EA2CF91E0B91208C080911E038D210E
:103DF00009F49ACF0E94BC0DEFCFA5E0BA1609F4E2
:103E000093CFEACFCC2029F0B5E0BB1508F48CCFD6
:103E1000DDCFE4E0EB1508F487CFE0CFBB20F1F273
:103E2000093309F031C1BFEFE7EEF3E0B150E040F4
:103E3000F040E1F700C00000802F0E94730E74CFA5
:103E4000812F86958695837061F0813009F06CCF63
:103E5000C8019370C11002C090E080E00E940E087B
:103E600063CFC8019370C11002C090E080E00E944F
:103E700024085ACF802FCC2029F00E949F0A0E944C
:103E8000B40952CF0E94DA09FACF812F837091F5DD
:103E9000C1104ACF402F429546954770440F440FBA
:103EA000802F8F70042E01C0880F0A94EAF7202F0C
:103EB000207104FF07C02FE030E001C0220F4A95B7
:103EC000EAF72095169516951370123071F013309D
:103ED00051F030917201113029F0822B83230E941E
:103EE000151A22CF832B822BFACF282B80917201B7
:103EF0008227F5CF8695CC2011F0812F8170882301
:103F000009F412CF402F429546954770440F440F55
:103F1000802F8F70042E01C0880F0A94EAF7202F9B
:103F2000207104FF07C02FE030E001C0220F4A9546
:103F3000EAF72095169516951370123071F013302C
:103F400051F030911204113029F0822B83230E940A
:103F50009419EACE832B822BFACF282B809112045E
:103F60008227F5CF1F70CC2029F0812F0E94F419F1
:103F7000802F2DCF802F0E94620E812F0E94AF19BB
:103F8000D3CE023F81F160F4003FB9F0013F81F0F0
:103F9000CC2009F46DC0B11079CE812F8F7127C06C
:103FA000033F41F1043FA1F780918F0182FF2DC0B3
:103FB000812F8F71CC2011F31AC0CC2079F094E0BE
:103FC0009B1508F4B1CE1F7181E090E001C0880F0D
:103FD0001A95EAF7909112048927B9CFA5E0AB159D
:103FE00008F4A2CEF0CF812F8F71C110C7CF0E94ED
:103FF000F4199ACE80E0CC2009F4A9CF1F7181E09A
:1040000001C0880F1A95EAF7A2CF80916B01CC20EE
:10401000D9F00E94FE0C80916E018770843041F4CB
:104020000E94B50D812F8F710E94AF19A12C7CCEFB
:10403000B4E0BB15D8F31F71812F0E94F41963E01F
:10404000812F0E94FF19F2CF90911E03982B90931D
:104050001E03E4E0EB1540F40E94B50D0E94BC0D78
:1040600064E0812F8F71EDCF81E00E94BB19DECF1C
:10407000BB2079F0093341F4FFEF27EE33E0F15034
:1040800020403040E1F7D6CE8FE39CE90197F1F76D
:10409000D1CE812F8F7172CF332029F0DC01189699
:1040A0008C9185FFCECCC80197558F3F910511F0BB
:1040B00008F048C020916D0030916E002817390734
:1040C00024F490936E0080936D00F701228136E115
:1040D000389F5001399FB00C1124C5018E5D9C4F53
:1040E0006C01DC0150962C935097928116968C911E
:1040F0001697992309F4A7CC1A961C930E93199737
:104100008F5F16968C930E94E807F6019687858745
:1041100080917101878380911F0390911E03892BE9
:1041200080870190F081E02D309741F0D6015496C0
:104130006D917C91C501885D9C4F09951093210379
:1041400000932003D70112968C91811139CD809173
:104150001E038272063DBCE51B0708F082CC023CC0
:10416000ECE51E0708F481CCF801E35CFC45E33183
:10417000F10508F0B3CCE951FC4C0C944433809128
:10418000F2009091F3000817190781F41092F300E0
:104190001092F20010921303109214031092150360
:1041A0001092160310921B0310921A0380911C03A5
:1041B00090911D03009709F476CFA8E08A16910428
:1041C00008F034CC622D0E94980881116CCF81E0F8
:1041D0000E94A20E68CF0031BFE51B0709F422CB75
:1041E0000131EFE51E0709F064C082E01CCB61E0FD
:1041F000C7010E944D158C01D70112968C9188231E
:10420000B1F080916D0090916E00019681F062E2B4
:10421000C62E63E0D62EB12CA12C992493948091C4
:104220006D0090916E008A159B050CF00CCAF70189
:10423000828181112FCA0031FFE51F0709F4F8CAF6
:1042400001312FE5120709F4F7CA680127E5D21AF0
:104250003FEFC316D10409F060F564E472E08C2DE1
:104260000E942B14892B29F586E18C9DF0018D9DF0
:10427000F00D1124EE5DFC4F8681813009F0DECA1D
:104280008091440290914502892B99F080914602D9
:1042900090914702892B69F08091480290914902E0
:1042A00020914A0230914B02822B932B892B09F4E7
:1042B000CFCAF7013280332009F4DCCA0F35FDE59F
:1042C0001F0709F4D3CA00362DE5120751F00E3549
:1042D0003DE5130709F0CECA80916000882309F4F8
:1042E000C5CA1092600080E00E94A20EE4C9A11429
:1042F000B10409F052CB312CB12CA12C80E00E94EA
:10430000A20ED0921D03C0921C0381E0809319037A
:10431000D60115968C918093170331100EC0AB28EF
:1043200061F0F601808191819C0124503109213A8C
:10433000310508F059CB0E94C20DD6011696AD90FA
:10434000BC90C5019A9581159F4110F4E0EEBE2204
:1043500077247394C5010197853A9D4508F0712C27
:10436000D6011996ED91FC911A97309731F01B9672
:104370006D917C9181E009957822772079F0F601A2
:10438000868197810E94920F80931803C501F8E0FF
:104390008F16910408F02BCB0E9446080E94060D50
:1043A0002FCBCF93DF9380912601807FA1F4809162
:1043B0002301882381F080916A01D09129016091C5
:1043C000210170912201A0912401B0912501C62FF5
:1043D000C723D81303C0DF91CF91089590E01097C1
:1043E00011F0CF3F19F401968770F3CF9C0143E0A1
:1043F000220F331F4A95E1F7F901E65DFE4F418137
:104400004713F1CF40814613EECF42814111EBCFEC
:10441000438154814A1B5B0B483C510520F7809136
:1044200026018F70806180932601F901E15DFE4FC6
:1044300080818F708061808381E291E00E94E11A27
:10444000DF91CF910C94CF0DAF92BF92CF92DF92BC
:10445000EF92FF920F931F93CF93DF93CDB7DEB709
:104460002D970FB6F894DEBF0FBECDBF8C0185E04F
:10447000F801DE01199601900D928A95E1F7F80195
:10448000E28081E2A82E81E0B82E60912401709133
:1044900025016115710509F448C1909121014091F0
:1044A0002201842F89238F3F09F43FC1208131816C
:1044B000C380D480F0902301F601E61BF70BFF20A8
:1044C00009F4FFC080912601582F507FE83CF10588
:1044D00008F0D0C0511181C0FE2C43132BC09213A1
:1044E00029C06091270170912801F8014681578108
:1044F00064177507F9F4E1101DC08F708061809317
:104500002601C5010E94E11A80912601F8018583E8
:104510008F2D2D960FB6F894DEBF0FBECDBFDF9165
:10452000CF911F910F91FF90EF90DF90CF90BF90B0
:10453000AF900895CD2829F0822F83238F3F09F073
:104540000FC180E0F82FF170DF2EE0916A014091F9
:10455000290180FD1DC0EE20D9F2809126018160E5
:1045600080932601F12CD4CF8E2F90E058E0E59F68
:10457000F0011124E65DFE4F5181351306C05081D4
:10458000251303C05281E512E6CFFC013196E77096
:10459000E413EACF29873A8789859A850E94151501
:1045A000292F22952F70903260F0225F2F702230D9
:1045B00078F49F7051F0F8019581907F31F4D12CFF
:1045C0000AC09F7011F08823D1F3805E8830B8F361
:1045D000C8010E94E11AFD2C9BCF43131BC092130C
:1045E00019C04091270150912801F8012681378197
:1045F0004217530779F4E1100DC08583C8010E946A
:10460000E11A88E0F801A1E2B1E001900D928A95EB
:10461000E1F77ECFC8010E942315882339F1EE20EF
:1046200029F1809126018032A0F020912101309162
:1046300022013A8329831B82DD82CC828E83809182
:1046400027019091280198878F83CE0101960E94BF
:10465000E11A88E0F801A1E2B1E001900D928A959B
:10466000E1F70E94D121FF24F39452CFC8010E94A8
:10467000E11AF9CF51110AC081E291E00E94E11ADA
:1046800088E0F50111928A95E9F76CCF4313C2CF08
:104690009213C0CF4091270150912801F801268143
:1046A00037814217530709F0B5CFE110B3CF8583A7
:1046B000C8010E94E11A88E0F50111928A95E9F794
:1046C00027CFE83CF105B8F7FE2CEE2079F2431332
:1046D0001EC092131CC02091270130912801F801BF
:1046E000868197812817390791F48091260180FDF2
:1046F00088CF982F907F09F484CF8583903F09F469
:104700007DCF982F907F905F8F70892B76CFC801D7
:104710000E94231581119DCF809126018160809395
:104720002601C8010E94E11AF3CEEE2009F49ECFC3
:10473000C8010E942315F82E882309F497CF88E03A
:10474000F801A1E2B1E001900D928A95E1F7809124
:104750002101909122010E9415150E94D121D8CEED
:1047600081E08E25EFCECF93DF93CDB7DEB7609794
:104770000FB6F894DEBF0FBECDBF29873A874B87AF
:104780005C876D877E878F87988BCE0109960E9404
:104790002422811114C088E0FE013996DE011196B1
:1047A00001900D928A95E1F72C853D852115310503
:1047B00031F059854A85842F85238F3FC9F5809133
:1047C0006A0190912901891320C060960FB6F89470
:1047D000DEBF0FBECDBFDF91CF91089559834A83CD
:1047E0003D832C8393E0AA0FBB1F9A95E1F7A65D4A
:1047F000BE4F98E0FE01319601900D929A95E1F737
:10480000809329010E94CF0DDACFB8E08B9FC001C1
:104810001124865D9E4F0E9424228823B1F280914C
:104820006A0190E001968770992780936A01C7CF4B
:10483000A0912901B0E0CD01019687709927609180
:104840006A016817190651F610921E030E94AA16F3
:104850001092290110926A0188E0E1E2F1E0DF01A3
:104860001D928A95E9F7ABCFDF92EF92FF920F93FB
:104870001F93CF93DF9380919002C0918F02D12C30
:104880001CE081111DC0DF91CF911F910F91FF900E
:10489000EF90DF90089501E00C0F00938F02EC2E53
:1048A000F12CC19FE0011124CF56DD4F8B819C81FB
:1048B000892B29F08881998189238F3F51F4C02F5A
:1048C00080919002C81738F31092900210928F02D4
:1048D000DACF1E9DF0011F9DF00D1124EF56FD4F04
:1048E00086819781892B21F480859185019651F4E9
:1048F000288139814A815B816C817D818E819F8194
:104900000E94B3231E9DF0011F9DF00D1124EF5650
:10491000FD4F1482138210921F03D110D0CFCE010D
:104920000E9423158111CBCF8FE39CE90197F1F70A
:1049300000C00000DD24D394C2CF10920A0310926D
:1049400009031092700080910803809307030E946E
:10495000E4080C9434243F924F925F926F927F92BE
:104960008F929F92AF92BF92CF92DF92EF92FF927F
:104970000F931F93CF93DF93C091070397E0892E86
:1049800001E010E02CE0322E3EEF932E44244394BD
:10499000809108038C1315C00E943424DF91CF91BD
:1049A0001F910F91FF90EF90DF90CF90BF90AF904D
:1049B0009F908F907F906F905F904F903F900C945E
:1049C000E408D0E0FE01EE0FFF1FE150FD4F8081B3
:1049D0009181889ED001899EB00D1124AF50BD4FAA
:1049E00014962C911497211157C050909002E1E930
:1049F000F2E030E020E0712C5D01251508F04AC09E
:104A0000E284F384D501CD90DC906FEF7FEF612CD1
:104A1000462D50E0DA01AA0FBB1FAC0DBD1D0D9055
:104A2000BC91A02D109731F0EA16FB0609F4BA01EB
:104A30006394EECF6F3F7607A1F1D80102C0AA0FB1
:104A4000BB1F6A95E2F77A2AB80102C0660F771F8A
:104A50006A94E2F7AB014150510974161506F9F456
:104A6000329EF001339EF00D1124EF56FD4F889ECB
:104A7000D001899EB00D1124AF50BD4F12962D91DB
:104A80003C91139737832683908291829187808708
:104A900015964C920E94B8082196C37079CF148263
:104AA00013822F5F3F4F3C96A8CF2F923F924F9299
:104AB0005F926F927F928F929F92AF92BF92CF92AE
:104AC000DF92EF92FF920F931F93CF93DF93CDB7B7
:104AD000DEB769970FB6F894DEBF0FBECDBF498B26
:104AE0005A8B6B8B7C8B8D8B611110921F031E86F2
:104AF0001F86188A85E0FE017196DE0119960190E5
:104B00000D928A95E1F780918F0182FD1CC00E9471
:104B1000E80720916C0130916D01821B930B88385E
:104B2000934120F080916E0182FFFBC10E94E80753
:104B300020916F0130917001821B930B8838934153
:104B400010F00E94EB0C8C859D85892B31F08985B6
:104B50009A8589238F3F09F0D0C129853A854B85F5
:104B60005C856D857E858F8598890E94B323C2C040
:104B700048EFC4164CE5D40629F4882379F00E9446
:104B80009D24EBCF69EFC6166CE5D60639F4882371
:104B900029F0809170008111F2CFBFC101EF12E0C6
:104BA000E12CB12CA12C88248394912C3EEF532E20
:104BB00044244394F8014081518166246A94762C00
:104BC00020E0822F90E0FC01EE0FFF1FE40FF51FA5
:104BD000608171816115710551F0C616D70609F41F
:104BE0003C012F5FEECFAA24A394B12CE3CFF12C8C
:104BF000FFEF6F167F0609F443C0F8014481F0907F
:104C000070008F2D411180E0F82FF170FF2EF80118
:104C1000258086819B85992309F402C1FF2009F430
:104C2000FFC0211013C0A40101C0440F6A94EAF729
:104C3000842B868380918D0290918E02C29730F4EE
:104C400062E370E070938E0260938D02C40102C033
:104C5000880F991F2A95E2F70197F80126812817F6
:104C6000190671F48091090390910A03009709F4E1
:104C70005AC00E94B907C39708F455C0F80144828E
:104C8000EF28095F1F4FAA94AB2809F0ACCF8B85A2
:104C9000882309F41DC1EE2009F41AC10E94E80717
:104CA00090930A038093090380919002883010F555
:104CB00091E0980F9093900298E0FE013996DE0102
:104CC000119601900D929A95E1F72CE0829FC00118
:104CD00011248F569D4F28E0FE013196DC01019092
:104CE0000D922A95E1F72FEF3FEFFC0131872087E6
:104CF000D386C28669960FB6F894DEBF0FBECDBFCD
:104D0000DF91CF911F910F91FF90EF90DF90CF90A7
:104D1000BF90AF909F908F907F906F905F904F90DB
:104D20003F902F9008958091070350910803982F8A
:104D3000F0E0E0E0851314C0909307030E171F07FF
:104D400009F49ECF90E0FC01EE0FFF1FE150FD4FF4
:104D5000B182A0820196837099278093080390CF37
:104D6000282E312CF101EE0FFF1FE150FD4F208165
:104D70003181F7E0F29FD001F39FB00D1124AF50C5
:104D8000BD4F2D913C911197398F288F40E020E045
:104D900030E0E32FF0E0EE0FFF1F688D798DE60F16
:104DA000F71F6080718061147104E1F0F8010190D7
:104DB000F081E02DFF8BEE8B20E005C066167706B4
:104DC00009F44F2D2F5FE22FF0E0EE0FFF1F6E89E9
:104DD0007F89E60FF71F608171816115710571F799
:104DE0003F5FD7CF4423C9F0F801231708F0FD0136
:104DF0004482E017F10721F490930703F42E40CF8B
:104E0000981305C0EA17FB0711F49F5F9370910197
:104E10002F5F3F4F822F83708DCFF0E0E0E0F7CF20
:104E200090E021101FC0B40102C0660F771F2A95C1
:104E3000E2F79B01215031098217930731F4442393
:104E400009F444C0C5010E94B808C40101C0880F1C
:104E50006A94EAF7982F9095F801868189238683D2
:104E6000F22C0ECFAC01062C02C0559547950A9442
:104E7000E2F79C012150310982239323892B11F5FC
:104E800040FF20C0F80182819381892BC1F01B82F1
:104E90001C821D821E8259825A820E94E80781600C
:104EA000582F9D838C83F801828193818F8398870B
:104EB00029813A814B816D817E810E94B323F80163
:104EC0001582C3CFF42FF1702F2EBFCF2F2CBDCF63
:104ED0009091070380910803981731F00E94AB244A
:104EE000EE2009F43ACE06CF0E94342410920A0331
:104EF000109209030E94E408F3CF61E0CE01099605
:104F00000E944D156C018B85F7EFCF16FCE5DF068F
:104F100009F02ECE882309F441CE81E08093700001
:104F20001CCE82E00E94BB1901CECF93DF9300D04C
:104F300000D00F92CDB7DEB790938A02809389029A
:104F4000811520E2920748F40F900F900F900F9078
:104F50000F90DF91CF910C94C30F8EEF89838A83DA
:104F60001B820E94E8078160782F9D838C83498192
:104F70005A816B818D810F900F900F900F900F9041
:104F8000DF91CF910C9455250F931F93CF93DF930F
:104F90008C01EB0164E472E08C2F0E942B14892BAE
:104FA000A1F48FE39CE90197F1F700C00000DD2731
:104FB000CE5BDD4F8881F80110821882833009F1C1
:104FC00048F4813059F0823081F0DF91CF911F9108
:104FD0000F9108958430D1F08530B9F78091440263
:104FE00090914502009789F306C080914602909106
:104FF0004702009799F3DF91CF911F910F910C9485
:1050000095278091480290914902F3CF80914A02FE
:1050100090914B02009779F720914402309145021C
:10502000809146029091470221153105D9F20097EF
:1050300011F7C901E0CFCF93DF9300D000D00F92DA
:10504000CDB7DEB790938A0280938902811520E262
:10505000920748F40F900F900F900F900F90DF91F0
:10506000CF910C94DB0F8EEF89838A8381E08B8351
:105070000E94E8078160782F9D838C8349815A8143
:105080006B818D810F900F900F900F900F90DF919B
:10509000CF910C945525CF93DF93D82FC92F0E9421
:1050A0001B288FE39CE90197F1F700C000008D2FCA
:1050B0009C2FDF91CF910C9495270F931F93CF9343
:1050C000DF938C01862F64E472E00E942B14892BFD
:1050D000C9F4C0914402D0914502209799F0F8019B
:1050E0008081833069F4CE010E944B28CE010E945A
:1050F0004B28CE01DF91CF911F910F910C944B283B
:105100008430B8F7DF91CF911F910F9108950F93DD
:105110001F93CF93DF938C01EB0164E472E08C2F3B
:105120000E942B14892B09F064C0FE01FF27D801CF
:105130008C91EE5BFD4F8130D9F419969C911997B3
:10514000992311F080830CC01A969C919923D1F376
:1051500082E0808380914602909147020097D9F4C3
:105160008091440290914502009709F442C013C017
:105170008230E9F519968C91199781112DC01A96F4
:105180008C9181110EC083E08083809148029091C0
:105190004902009719F1DF91CF911F910F910C9463
:1051A0001B2884E0808380914A0290914B020097F3
:1051B00091F780914402909145020097F9F00E9486
:1051C0004B288091460290914702009721F78091E9
:1051D000440290914502DFCF85E0808380914402B4
:1051E00090914502009729F00E944B28F0CF86E06D
:1051F0008083DF91CF911F910F9108958091460296
:1052000090914702B1CF6F927F928F929F92AF920F
:10521000BF92CF92DF92EF92FF920F931F93CF93A3
:10522000DF93CDB7DEB768970FB6F894DEBF0FBE39
:10523000CDBF8E010F5F1F4F88E1F80111928A9553
:10524000E9F79EEAE92E90E0F92E6801662463945E
:10525000712C34EC832E30E0932EF70181917F0185
:105260008F3F09F445C0F894E82FE295EF70F0E025
:1052700021A98F70A30102C0440F551F8A95E2F740
:10528000CA01922F982B91AB92A98095892382AB6A
:10529000789400C0EAEBF0E021E030E0B12CA12CE2
:1052A00041914F3F09F464C0A42FA295AF70B0E0C4
:1052B000D0968C9190E04F7002C0959587954A9555
:1052C000E2F780FD55C0C901A82AB92A220F331F71
:1052D0008E169F0629F7F701319780818F3F11F0D5
:1052E0000E94090B50EA5A95F1F7F601B182A082AB
:1052F000F2E0CF0ED11C4AEBE41640E0F40609F0D0
:10530000ACCF48E150E0B80186E791E00E946733F6
:105310009C01FF24F394892B09F4F12C232B59F1E0
:1053200088E1F801A6E7B1E001900D928A95E1F7D6
:1053300081E0809375010E94E80790937401809347
:10534000730180917301909174010E94B9070597D0
:10535000B0F0E6E7F1E0A5EBB1E0819191918D939A
:105360009D9351E0EE38F507C1F71092750107C023
:1053700090E080E0A9CF809175018111E2CF8F2D5F
:1053800068960FB6F894DEBF0FBECDBFDF91CF9108
:105390001F910F91FF90EF90DF90CF90BF90AF9053
:1053A0009F908F907F906F90089590E080E00E9492
:1053B0009933893E9E4F11F40C948C1580E008952A
:1053C00078941F921FB61F9211248F939F93AF93CF
:1053D000BF938091540390915503A0915603B091CF
:1053E00057030196A11DB11D80935403909355035B
:1053F000A0935603B0935703BF91AF919F918F91A4
:105400001F901FBE1F901895CDB7DEB762970FB6DD
:10541000F894DEBF0FBECDBF0E94E8079093CF0186
:105420008093CE0184B7806884BF84B7806884BFCE
:1054300087E09BE09093E9008093E8000E943F148E
:105440000E944E160E94A51585B7886085BF8BB750
:1054500080688BBF8BE480931F04809354048093F7
:105460002B048AE580931E048093530480932A04BE
:105470008B9A80E0815009F0C3C38B9878948BE0BD
:1054800083BF8AEF8CBF82E089BF0E948C15811197
:1054900002C00E941C140EEA10E06AEBE62E60E0E7
:1054A000F62EF80181918F018F3F11F00E94090BB8
:1054B000E016F106B1F70AEB10E054ECE52E50E0EF
:1054C000F52ED8018D918D018F3F11F00E94090BAF
:1054D000E016F106B1F788E1E5EBF1E0DF01282FF6
:1054E0001D922A95E9F7E6E7F1E0DF011D928A9522
:1054F000E9F70E94D529811102C00E94771A82E043
:1055000090E00E948B338093910184E090E00E94B0
:105510008B33182F82E290E00E948B33982F812FDB
:1055200090938F0180938E010E940329EFE3FCE9A1
:105530003197F1F700C000000E9403298091B50166
:1055400080FF08C06FEF7FEF90E080E00E94BC33E7
:105550000E94A60783E090E00E948B330E94151AF8
:1055600060911204662309F453C362FB662760F955
:1055700082E00E94761980919001811133C00E94CF
:10558000D529811104C00E94771A0E94561A88E01A
:1055900090E00E94933360933D0270933E028093AB
:1055A0003F02909340026E7F71F40E94561A88E089
:1055B00090E00E94933360933D0270933E0280938B
:1055C0003F02909340020E940C091092E4018091E6
:1055D0003D0280FF04C060E086950E941C1981E0B6
:1055E0008093900168ED70E044ED50E0A6EDB0E0EE
:1055F00021E030E08D91E82FE295EF70F0E0F1A826
:105600008F70890101C0000F8A95EAF7902F90955D
:105610009F2191AB82A9802B82ABFA018191AF01CE
:10562000E82FE295EF70F0E0F1A88F70890101C0DA
:10563000000F8A95EAF7902F90959F2191AB82A950
:10564000802B82AB6A177B07A9F68FE891E0019760
:10565000F1F700C0000080B385FB882780F98699A8
:10566000D9C290E0892B8093AE0186B386FB882750
:1056700080F9B599D1C290E0892B8093AF0182E285
:1056800091E09093E7018093E60181E690E09093AA
:105690005103809350039FEFA0E7B2E09150A040E8
:1056A000B040E1F700C00000FE0131961F0180917B
:1056B00039041091CD01882309F4B0C21092390445
:1056C0000E94E8079093CF018093CE01112371F0DF
:1056D0001092CD0110921E030E94AA160E943A0851
:1056E0000E94251A8091CD0181119AC20E94F20F69
:1056F0008091EA03882309F452C280911E0484FF3A
:105700004EC20E94032981110E94C807A5EBB1E097
:10571000E2E9F1E010E000E0602F8D919D91219190
:1057200031912817390709F4A0C22827392770E0DA
:10573000EE24E394F12CA70142235323452B09F4D3
:105740008EC279836A8397012823392391E0232B22
:1057500009F490E09B830E94E8078160782F9D8385
:105760008C8349815A816B818D810E945525000F60
:10577000111FF801EE56FE4F80819181E826F9262F
:10578000F182E08280911A0390911B03892B09F426
:105790003EC040910F03509110036091110370912E
:1057A00012032FB7F8948091540390915503A09160
:1057B0005603B09157032FBF841B950BA60BB70B55
:1057C00040910B0350910C0360910D0370910E03F7
:1057D00084179507A607B707D0F080911A03909118
:1057E0001B030E94DB0F10921B0310921A031092EE
:1057F0000F031092100310921103109212031092D3
:105800000B0310920C0310920D0310920E03809163
:105810006D0090916E00F12C019609F06DC280919F
:105820007000811173C28091E4018823D1F18091CD
:10583000E301E0913D02E695E81BE093DF01823051
:1058400009F08FC2F0E0EE5CFE4FE4910E2F10E005
:1058500034E1E32E38E1F32E8091E001882361F0FA
:105860001092E0010E94E8079093DE018093DD0131
:105870001092E2011092E1010E94E807E091DD013F
:10588000F091DE018E1B9F0B8F3F9F4750F40E0F50
:105890001F1F1093DE010093DD018DED91E0F701F4
:1058A00009957EEAC72E71E0D72E0CEA11E0EAEAEC
:1058B000EE2EE1E0FE2E24ED30E03C872B87F6ED66
:1058C0004F2EF0E05F2EB12CA12CA4E08A2E912C5B
:1058D000D601ED916D01EE0FEE0FD2012D912D014C
:1058E000A22FA295AF70B0E0D0968C9190E02F706F
:1058F00002C0959587952A95E2F781709927AB8527
:10590000BC854D91BC87AB87A42FA295AF70B0E04A
:10591000D0962C9130E04F7002C0359527954A956E
:10592000E2F7A9014170552720FF02C042E050E094
:10593000842BE82BD6011197EC933801EF70F0E03F
:10594000EC53FF4F8081F8019081890F808320E024
:105950008430DCF0D7018C918F5F8C93809112049E
:10596000282F30E050E040E02F87388B498B5A8B4E
:10597000CA01B901B11025C20E945E0F44E066E081
:105980000E949B140E94F51221E0D8018C918D3F5A
:10599000DCF4F70180818150808380911204282FEC
:1059A00030E050E040E02F87388B498B5A8BCA019A
:1059B000B901B1100AC20E945E0F45E066E00E9484
:1059C0009B140E94F51221E00F5F1F4FF8013197E1
:1059D000D3018C91082E000C990BB4010E94303336
:1059E0008083A22ABFEFEB1AFB0AE1E0BE12E6C1F8
:1059F000A1100E94C80786E0E7EDF1E0D101019017
:105A00000D928A95E1F7E090D9010091DA01F090CA
:105A1000DB011091DC011092D9011092DA01109291
:105A2000DB011092DC01802F8E2909F448C080919F
:105A3000D5019091D6010E94B9079C018091D101B6
:105A4000882309F4F4C525313105C8F18F3F19F0D9
:105A50008F5F8093D101EE2059F00E947F0A9FEF63
:105A60001E140CF491E0899F802D11248093D9019C
:105A7000002359F00E947F0A9FEF10160CF491E06A
:105A8000899F802D11248093DA013091D90133232D
:105A9000B1F02091DA01222391F045EB3403C001EB
:105AA0001124992309F495C19093D90155EB25034D
:105AB00090011124332309F490C13093DA01812F2E
:105AC0008F2909F448C08091D3019091D4010E949C
:105AD000B9079C018091D001882309F4A3C5213521
